{
  "abi": [
    {
      "type": "constructor",
      "inputs": [
        {
          "name": "_owner",
          "type": "address",
          "internalType": "address"
        }
      ],
      "stateMutability": "nonpayable"
    },
    {
      "type": "function",
      "name": "batchSetLines",
      "inputs": [
        {
          "name": "ups",
          "type": "tuple[]",
          "internalType": "struct CreditLimitManager.LineUpdate[]",
          "components": [
            {
              "name": "account",
              "type": "address",
              "internalType": "address"
            },
            {
              "name": "score",
              "type": "uint8",
              "internalType": "uint8"
            },
            {
              "name": "limit",
              "type": "uint256",
              "internalType": "uint256"
            }
          ]
        }
      ],
      "outputs": [],
      "stateMutability": "nonpayable"
    },
    {
      "type": "function",
      "name": "clearLine",
      "inputs": [
        {
          "name": "account",
          "type": "address",
          "internalType": "address"
        }
      ],
      "outputs": [],
      "stateMutability": "nonpayable"
    },
    {
      "type": "function",
      "name": "creditLimit",
      "inputs": [
        {
          "name": "account",
          "type": "address",
          "internalType": "address"
        }
      ],
      "outputs": [
        {
          "name": "",
          "type": "uint256",
          "internalType": "uint256"
        }
      ],
      "stateMutability": "view"
    },
    {
      "type": "function",
      "name": "lines",
      "inputs": [
        {
          "name": "",
          "type": "address",
          "internalType": "address"
        }
      ],
      "outputs": [
        {
          "name": "score",
          "type": "uint8",
          "internalType": "uint8"
        },
        {
          "name": "limit",
          "type": "uint248",
          "internalType": "uint248"
        }
      ],
      "stateMutability": "view"
    },
    {
      "type": "function",
      "name": "owner",
      "inputs": [],
      "outputs": [
        {
          "name": "",
          "type": "address",
          "internalType": "address"
        }
      ],
      "stateMutability": "view"
    },
    {
      "type": "function",
      "name": "scoreOf",
      "inputs": [
        {
          "name": "account",
          "type": "address",
          "internalType": "address"
        }
      ],
      "outputs": [
        {
          "name": "",
          "type": "uint8",
          "internalType": "uint8"
        }
      ],
      "stateMutability": "view"
    },
    {
      "type": "function",
      "name": "setLine",
      "inputs": [
        {
          "name": "account",
          "type": "address",
          "internalType": "address"
        },
        {
          "name": "score",
          "type": "uint8",
          "internalType": "uint8"
        },
        {
          "name": "limit",
          "type": "uint256",
          "internalType": "uint256"
        }
      ],
      "outputs": [],
      "stateMutability": "nonpayable"
    },
    {
      "type": "function",
      "name": "setOwner",
      "inputs": [
        {
          "name": "n",
          "type": "address",
          "internalType": "address"
        }
      ],
      "outputs": [],
      "stateMutability": "nonpayable"
    },
    {
      "type": "event",
      "name": "LineCleared",
      "inputs": [
        {
          "name": "account",
          "type": "address",
          "indexed": true,
          "internalType": "address"
        }
      ],
      "anonymous": false
    },
    {
      "type": "event",
      "name": "LineSet",
      "inputs": [
        {
          "name": "account",
          "type": "address",
          "indexed": true,
          "internalType": "address"
        },
        {
          "name": "score",
          "type": "uint8",
          "indexed": false,
          "internalType": "uint8"
        },
        {
          "name": "limit",
          "type": "uint256",
          "indexed": false,
          "internalType": "uint256"
        }
      ],
      "anonymous": false
    },
    {
      "type": "event",
      "name": "OwnerChanged",
      "inputs": [
        {
          "name": "oldOwner",
          "type": "address",
          "indexed": true,
          "internalType": "address"
        },
        {
          "name": "newOwner",
          "type": "address",
          "indexed": true,
          "internalType": "address"
        }
      ],
      "anonymous": false
    }
  ],
  "bytecode": {
    "object": "0x608060405234801561000f575f80fd5b5060405161098b38038061098b83398101604081905261002e9161006a565b6001600160a01b038116156100435780610045565b335b5f80546001600160a01b0319166001600160a01b039290921691909117905550610097565b5f6020828403121561007a575f80fd5b81516001600160a01b0381168114610090575f80fd5b9392505050565b6108e7806100a45f395ff3fe608060405234801561000f575f80fd5b5060043610610085575f3560e01c806393a2ab181161005857806393a2ab181461019a578063960c3a60146101ad578063b5b98ce914610230578063ebfedd3114610243575f80fd5b8063133af4561461008957806313af4035146100d85780631f429f50146100ed5780638da5cb5b14610156575b5f80fd5b6100c1610097366004610793565b73ffffffffffffffffffffffffffffffffffffffff165f9081526001602052604090205460ff1690565b60405160ff90911681526020015b60405180910390f35b6100eb6100e6366004610793565b610256565b005b6101486100fb366004610793565b73ffffffffffffffffffffffffffffffffffffffff165f9081526001602052604090205461010090047effffffffffffffffffffffffffffffffffffffffffffffffffffffffffffff1690565b6040519081526020016100cf565b5f546101759073ffffffffffffffffffffffffffffffffffffffff1681565b60405173ffffffffffffffffffffffffffffffffffffffff90911681526020016100cf565b6100eb6101a8366004610793565b6103e3565b6101f76101bb366004610793565b60016020525f908152604090205460ff81169061010090047effffffffffffffffffffffffffffffffffffffffffffffffffffffffffffff1682565b6040805160ff90931683527effffffffffffffffffffffffffffffffffffffffffffffffffffffffffffff9091166020830152016100cf565b6100eb61023e3660046107b3565b6104b3565b6100eb610251366004610832565b6105c0565b5f5473ffffffffffffffffffffffffffffffffffffffff1633146102db576040517f08c379a000000000000000000000000000000000000000000000000000000000815260206004820152600960248201527f6e6f74206f776e6572000000000000000000000000000000000000000000000060448201526064015b60405180910390fd5b73ffffffffffffffffffffffffffffffffffffffff8116610358576040517f08c379a000000000000000000000000000000000000000000000000000000000815260206004820152600760248201527f6f776e65723d300000000000000000000000000000000000000000000000000060448201526064016102d2565b5f805460405173ffffffffffffffffffffffffffffffffffffffff808516939216917fb532073b38c83145e3e5135377a08bf9aab55bc0fd7c1179cd4fb995d2a5159c91a35f80547fffffffffffffffffffffffff00000000000000000000000000000000000000001673ffffffffffffffffffffffffffffffffffffffff92909216919091179055565b5f5473ffffffffffffffffffffffffffffffffffffffff163314610463576040517f08c379a000000000000000000000000000000000000000000000000000000000815260206004820152600960248201527f6e6f74206f776e6572000000000000000000000000000000000000000000000060448201526064016102d2565b73ffffffffffffffffffffffffffffffffffffffff81165f81815260016020526040808220829055517f168ef39dff4c656ad71e0a283758feed9190b79916ca2936f34ac33d22dccbfc9190a250565b5f5473ffffffffffffffffffffffffffffffffffffffff163314610533576040517f08c379a000000000000000000000000000000000000000000000000000000000815260206004820152600960248201527f6e6f74206f776e6572000000000000000000000000000000000000000000000060448201526064016102d2565b5f5b818110156105bb576105b38383838181106105525761055261086b565b6105689260206060909202019081019150610793565b84848481811061057a5761057a61086b565b90506060020160200160208101906105929190610898565b8585858181106105a4576105a461086b565b905060600201604001356105c0565b600101610535565b505050565b5f5473ffffffffffffffffffffffffffffffffffffffff163314610640576040517f08c379a000000000000000000000000000000000000000000000000000000000815260206004820152600960248201527f6e6f74206f776e6572000000000000000000000000000000000000000000000060448201526064016102d2565b73ffffffffffffffffffffffffffffffffffffffff83166106bd576040517f08c379a000000000000000000000000000000000000000000000000000000000815260206004820152600660248201527f616363743d30000000000000000000000000000000000000000000000000000060448201526064016102d2565b60408051808201825260ff8481168083527effffffffffffffffffffffffffffffffffffffffffffffffffffffffffffff858116602080860191825273ffffffffffffffffffffffffffffffffffffffff8a165f8181526001835288902096519251909316610100029190941617909355835190815290810184905290917f6a9730eda0cebbb436d11754e768a91191e887ffc9d84ab8770e77355a41f0c5910160405180910390a2505050565b803573ffffffffffffffffffffffffffffffffffffffff8116811461078e575f80fd5b919050565b5f602082840312156107a3575f80fd5b6107ac8261076b565b9392505050565b5f80602083850312156107c4575f80fd5b823567ffffffffffffffff808211156107db575f80fd5b818501915085601f8301126107ee575f80fd5b8135818111156107fc575f80fd5b866020606083028501011115610810575f80fd5b60209290920196919550909350505050565b803560ff8116811461078e575f80fd5b5f805f60608486031215610844575f80fd5b61084d8461076b565b925061085b60208501610822565b9150604084013590509250925092565b7f4e487b71000000000000000000000000000000000000000000000000000000005f52603260045260245ffd5b5f602082840312156108a8575f80fd5b6107ac8261082256fea26469706673582212203391c0de169c55dad852158752fe629632820816312a61443dcc75ababa1efe364736f6c63430008180033",
    "linkReferences": {}
  },
  "methodIdentifiers": {
    "batchSetLines((address,uint8,uint256)[])": "b5b98ce9",
    "clearLine(address)": "93a2ab18",
    "creditLimit(address)": "1f429f50",
    "lines(address)": "960c3a60",
    "owner()": "8da5cb5b",
    "scoreOf(address)": "133af456",
    "setLine(address,uint8,uint256)": "ebfedd31",
    "setOwner(address)": "13af4035"
  },
  "id": 20
}