{"abi":[{"type":"constructor","inputs":[{"name":"_prover","type":"address","internalType":"address"}],"stateMutability":"nonpayable"},{"type":"function","name":"_setTestVerifier","inputs":[{"name":"newVerifier","type":"address","internalType":"contract IProofVerifier"}],"outputs":[],"stateMutability":"nonpayable"},{"type":"function","name":"claim","inputs":[{"name":"","type":"tuple","internalType":"struct Proof","components":[{"name":"seal","type":"tuple","internalType":"struct Seal","components":[{"name":"verifierSelector","type":"bytes4","internalType":"bytes4"},{"name":"seal","type":"bytes32[8]","internalType":"bytes32[8]"},{"name":"mode","type":"uint8","internalType":"enum ProofMode"}]},{"name":"callGuestId","type":"bytes32","internalType":"bytes32"},{"name":"length","type":"uint256","internalType":"uint256"},{"name":"callAssumptions","type":"tuple","internalType":"struct CallAssumptions","components":[{"name":"proverContractAddress","type":"address","internalType":"address"},{"name":"functionSelector","type":"bytes4","internalType":"bytes4"},{"name":"settleChainId","type":"uint256","internalType":"uint256"},{"name":"settleBlockNumber","type":"uint256","internalType":"uint256"},{"name":"settleBlockHash","type":"bytes32","internalType":"bytes32"}]}]},{"name":"claimer","type":"address","internalType":"address"},{"name":"average","type":"uint256","internalType":"uint256"}],"outputs":[],"stateMutability":"nonpayable"},{"type":"function","name":"claimed","inputs":[{"name":"","type":"address","internalType":"address"}],"outputs":[{"name":"","type":"bool","internalType":"bool"}],"stateMutability":"view"},{"type":"function","name":"prover","inputs":[],"outputs":[{"name":"","type":"address","internalType":"address"}],"stateMutability":"view"},{"type":"function","name":"reward","inputs":[],"outputs":[{"name":"","type":"address","internalType":"contract HodlerBadgeNFT"}],"stateMutability":"view"},{"type":"function","name":"verifier","inputs":[],"outputs":[{"name":"","type":"address","internalType":"contract IProofVerifier"}],"stateMutability":"view"},{"type":"error","name":"InvalidChainId","inputs":[]}],"bytecode":{"object":"0x60a060405234801561000f575f5ffd5b506040516149c93803806149c983398101604081905261002e9161040e565b6100366100b4565b5f80546001600160a01b03199081166001600160a01b03938416179091553360805260018054909116918316919091179055604051610074906103e7565b604051809103905ff08015801561008d573d5f5f3e3d5ffd5b50600380546001600160a01b0319166001600160a01b039290921691909117905550610485565b5f6100bd61024f565b156101b6575f30306040516100d1906103f4565b6001600160a01b03928316815291166020820152604001604051809103905ff080158015610101573d5f5f3e3d5ffd5b506040516384cf84e160e01b81527fdcb00648ecc90d8bfe92aa8d51061beb0bcb110d274fc4a517e526574233d36b60048201529091506001600160a01b038216906384cf84e1906024015f604051808303815f87803b158015610163575f5ffd5b505af1158015610175573d5f5f3e3d5ffd5b505050508060405161018690610401565b6001600160a01b039091168152602001604051809103905ff0801580156101af573d5f5f3e3d5ffd5b5091505090565b6101be61026b565b156101e0575f735553cf6ce25e3f80fad2866f6230346159ecd89c5b92915050565b6101e86102d1565b15610236575f739e30dc3e49c4d47f982902710616dcc4b6ff7bf5737e231cfc3e3b549633d5ad61c30f07dd4d408ad3738972b6ff413ac04e61e19f07d7f3bd980d0cc3215b949350505050565b604051633d23e4d160e11b815260040160405180910390fd5b5f610258610333565b806102665750610266610349565b905090565b5f466001148061027b575046600a145b806102865750466089145b80610292575046610144145b8061029e5750466101e0145b806102aa575046612105145b806102b657504661a4b1145b806102c257504661a4ba145b8061026657505061e708461490565b5f4662aa36a714806102e457504661012c145b806102f05750466112c1145b806102fc57504661e705145b8061030957504662013882145b8061031657504662014a34145b8061032357504662066eee145b8061026657505062aa37dc461490565b5f46617a69148061026657505062049919461490565b5f808061036b73f4e4fdca9d5d55e64525e314391996a15f7ec600601e61043b565b6001600160a01b03166040515f60405180830381855afa9150503d805f81146103af576040519150601f19603f3d011682016040523d82523d5f602084013e6103b4565b606091505b50915091508115806103c557508051155b156103d2575f9250505090565b5f8180602001905181019061022e9190610466565b6111378061133683390190565b61111b8061246d83390190565b6114418061358883390190565b5f6020828403121561041e575f5ffd5b81516001600160a01b0381168114610434575f5ffd5b9392505050565b6001600160a01b0381811683821601908111156101da57634e487b7160e01b5f52601160045260245ffd5b5f60208284031215610476575f5ffd5b81518015158114610434575f5ffd5b608051610e9961049d5f395f6102230152610e995ff3fe608060405234801561000f575f5ffd5b5060043610610060575f3560e01c80631ded434314610064578063228cb733146100795780632b7ac3f3146100a957806332a8f30f146100bb5780639b8b30c8146100ce578063c884ef83146100e1575b5f5ffd5b6100776100723660046109cc565b610113565b005b60035461008c906001600160a01b031681565b6040516001600160a01b0390911681526020015b60405180910390f35b5f5461008c906001600160a01b031681565b60015461008c906001600160a01b031681565b6100776100dc366004610a13565b610218565b6101036100ef366004610a13565b60026020525f908152604090205460ff1681565b60405190151581526020016100a0565b6001546001600160a01b03166304f1e97160e31b6101318282610414565b6001600160a01b0384165f9081526002602052604090205460ff16156101905760405162461bcd60e51b815260206004820152600f60248201526e105b1c9958591e4818db185a5b5959608a1b60448201526064015b60405180910390fd5b629896808310610211576001600160a01b038481165f8181526002602052604090819020805460ff1916600117905560035490516335313c2160e11b8152600481019290925290911690636a627842906024015f604051808303815f87803b1580156101fa575f5ffd5b505af115801561020c573d5f5f3e3d5ffd5b505050505b5050505050565b336001600160a01b037f0000000000000000000000000000000000000000000000000000000000000000161461029a5760405162461bcd60e51b815260206004820152602160248201527f4f6e6c79206465706c6f7965722063616e206368616e676520766572696669656044820152603960f91b6064820152608401610187565b6102a2610489565b806102b057506102b06104a5565b6103225760405162461bcd60e51b815260206004820152603760248201527f4368616e67696e6720766572696669657273206973206f6e6c7920616c6c6f7760448201527f6564206f6e206465766e6574206f7220746573746e65740000000000000000006064820152608401610187565b5f6001600160a01b0316816001600160a01b0316633fd66f226040518163ffffffff1660e01b8152600401602060405180830381865afa158015610368573d5f5f3e3d5ffd5b505050506040513d601f19601f8201168201806040525081019061038c9190610a35565b6001600160a01b0316036103f35760405162461bcd60e51b815260206004820152602860248201527f56657269666965722773207265706f7369746f72792061646472657373206973604482015267081b9bdd081cd95d60c21b6064820152608401610187565b5f80546001600160a01b0319166001600160a01b0392909216919091179055565b5f5f61041e610507565b5f5460405163c4fa74e560e01b81529294509092506001600160a01b03169063c4fa74e590610457908590859089908990600401610b16565b5f6040518083038186803b15801561046d575f5ffd5b505afa15801561047f573d5f5f3e3d5ffd5b5050505050505050565b5f610492610837565b806104a057506104a061084d565b905090565b5f4662aa36a714806104b857504661012c145b806104c45750466112c1145b806104d057504661e705145b806104dd57504662013882145b806104ea57504662014a34145b806104f757504662066eee145b806104a057505062aa37dc461490565b61050f610908565b5f8061051e3660048184610b56565b81019061052b9190610ca2565b90505f6020808061053c8180610d8b565b6105469190610d8b565b6105509190610d8b565b61055a9190610d8b565b6020808061056a61010082610d8b565b6105749190610d8b565b61057e9190610d8b565b6105889190610d8b565b610593906004610d8b565b61059d9190610d8b565b90505f602080806105ae8180610d8b565b6105b89190610d8b565b6105c29190610d8b565b6105cc9190610d8b565b602080806105da8180610d8b565b6105e49190610d8b565b6105ee9190610d8b565b6105f89190610d8b565b6020808061060861010082610d8b565b6106129190610d8b565b61061c9190610d8b565b6106269190610d8b565b6106309190610d8b565b846040015161063f9190610da4565b6106499190610da4565b90505f6106568284610d8b565b90505f80366020808061066b61010082610d8b565b6106759190610d8b565b61067f9190610d8b565b6106899190610d8b565b610694906004610d8b565b90602080806106a38180610d8b565b6106ad9190610d8b565b6106b79190610d8b565b6106c19190610d8b565b602080806106d161010082610d8b565b6106db9190610d8b565b6106e59190610d8b565b6106ef9190610d8b565b6106fa906004610d8b565b6107049190610d8b565b9261071193929190610b56565b8080601f0160208091040260200160405190810160405280939291908181526020018383808284375f92018290525093945061075592508591508790503684610b56565b8080601f0160208091040260200160405190810160405280939291908181526020018383808284375f92018290525093945085925061079691506108f39050565b6040516020016107a69190610db7565b60408051601f19818403018152908290526107c692918590602001610ddd565b60405160208183030381529060405290505f6002826040516107e89190610e03565b602060405180830381855afa158015610803573d5f5f3e3d5ffd5b5050506040513d601f19601f820116820180604052508101906108269190610e0e565b979a97995096975050505050505050565b5f46617a6914806104a057505062049919461490565b5f808061086f73f4e4fdca9d5d55e64525e314391996a15f7ec600601e610e25565b6001600160a01b03166040515f60405180830381855afa9150503d805f81146108b3576040519150601f19603f3d011682016040523d82523d5f602084013e6108b8565b606091505b50915091508115806108c957508051155b156108d6575f9250505090565b5f818060200190518101906108eb9190610e44565b949350505050565b6108fb610908565b610903610908565b919050565b604051806080016040528061091b610971565b81526020015f81526020015f815260200161096c6040518060a001604052805f6001600160a01b031681526020015f6001600160e01b03191681526020015f81526020015f81526020015f81525090565b905290565b60408051606081019091525f81526020810161098b610996565b81526020015f905290565b6040518061010001604052806008906020820280368337509192915050565b6001600160a01b03811681146109c9575f5ffd5b50565b5f5f5f8385036102608112156109e0575f5ffd5b6102208112156109ee575f5ffd5b50839250610220840135610a01816109b5565b92959294505050610240919091013590565b5f60208284031215610a23575f5ffd5b8135610a2e816109b5565b9392505050565b5f60208284031215610a45575f5ffd5b8151610a2e816109b5565b805180516001600160e01b03191683526020808201519084015f5b6008811015610a8a578251825260209283019290910190600101610a6b565b5050506040015160028110610aad57634e487b7160e01b5f52602160045260245ffd5b61012083015260208181015161014084015260408083015161016085015260609283015180516001600160a01b0316610180860152918201516001600160e01b0319166101a08501528101516101c0840152908101516101e08301526080015161020090910152565b6102808101610b258287610a50565b6102208201949094526001600160a01b03929092166102408301526001600160e01b03191661026090910152919050565b5f5f85851115610b64575f5ffd5b83861115610b70575f5ffd5b5050820193919092039150565b634e487b7160e01b5f52604160045260245ffd5b6040516080810167ffffffffffffffff81118282101715610bb457610bb4610b7d565b60405290565b6040516060810167ffffffffffffffff81118282101715610bb457610bb4610b7d565b604051610100810167ffffffffffffffff81118282101715610bb457610bb4610b7d565b80356001600160e01b031981168114610903575f5ffd5b803560028110610903575f5ffd5b5f60a08284031215610c36575f5ffd5b60405160a0810167ffffffffffffffff81118282101715610c5957610c59610b7d565b6040529050808235610c6a816109b5565b8152610c7860208401610c01565b60208201526040838101359082015260608084013590820152608092830135920191909152919050565b5f81830361022081128015610cb5575f5ffd5b50610cbe610b91565b610140821215610ccc575f5ffd5b610cd4610bba565b9150610cdf84610c01565b825284603f850112610cef575f5ffd5b610cf7610bdd565b80610120860187811115610d09575f5ffd5b602087015b81811015610d26578035845260209384019301610d0e565b50816020860152610d3681610c18565b6040868101919091529484525050506101408401356020820152610160840135918101829052610d6a856101808601610c26565b6060820152949350505050565b634e487b7160e01b5f52601160045260245ffd5b80820180821115610d9e57610d9e610d77565b92915050565b81810381811115610d9e57610d9e610d77565b6102208101610d9e8284610a50565b5f81518060208401855e5f93019283525090919050565b5f610dfa610df4610dee8488610dc6565b86610dc6565b84610dc6565b95945050505050565b5f610a2e8284610dc6565b5f60208284031215610e1e575f5ffd5b5051919050565b6001600160a01b038181168382160190811115610d9e57610d9e610d77565b5f60208284031215610e54575f5ffd5b81518015158114610a2e575f5ffdfea2646970667358221220dd0849946a7232b009e1ecc0bd4cb7d78f55390a9e9d998c02fc665d6c940b8d64736f6c634300081c003360806040526001600655348015610014575f5ffd5b506040518060400160405280600e81526020016d121bd91b195c90985919d953919560921b815250604051806040016040528060048152602001631213d11360e21b815250815f90816100679190610114565b5060016100748282610114565b5050506101ce565b634e487b7160e01b5f52604160045260245ffd5b600181811c908216806100a457607f821691505b6020821081036100c257634e487b7160e01b5f52602260045260245ffd5b50919050565b601f82111561010f57805f5260205f20601f840160051c810160208510156100ed5750805b601f840160051c820191505b8181101561010c575f81556001016100f9565b50505b505050565b81516001600160401b0381111561012d5761012d61007c565b6101418161013b8454610090565b846100c8565b6020601f821160018114610173575f831561015c5750848201515b5f19600385901b1c1916600184901b17845561010c565b5f84815260208120601f198516915b828110156101a25787850151825560209485019460019092019101610182565b50848210156101bf57868401515f19600387901b60f8161c191681555b50505050600190811b01905550565b610f5c806101db5f395ff3fe608060405234801561000f575f5ffd5b50600436106100ef575f3560e01c80636352211e11610093578063a22cb46511610063578063a22cb465146101ee578063b88d4fde14610201578063c87b56dd14610214578063e985e9c514610227575f5ffd5b80636352211e146101ad5780636a627842146101c057806370a08231146101d357806395d89b41146101e6575f5ffd5b8063081812fc116100ce578063081812fc14610147578063095ea7b31461017257806323b872dd1461018757806342842e0e1461019a575f5ffd5b80629a9b7b146100f357806301ffc9a71461010f57806306fdde0314610132575b5f5ffd5b6100fc60065481565b6040519081526020015b60405180910390f35b61012261011d366004610be5565b61023a565b6040519015158152602001610106565b61013a61028b565b6040516101069190610c2e565b61015a610155366004610c40565b61031a565b6040516001600160a01b039091168152602001610106565b610185610180366004610c72565b610341565b005b610185610195366004610c9a565b610350565b6101856101a8366004610c9a565b6103de565b61015a6101bb366004610c40565b6103fd565b6101856101ce366004610cd4565b610407565b6100fc6101e1366004610cd4565b61042a565b61013a61046f565b6101856101fc366004610ced565b61047e565b61018561020f366004610d3a565b610489565b61013a610222366004610c40565b6104a0565b610122610235366004610e17565b610511565b5f6001600160e01b031982166380ac58cd60e01b148061026a57506001600160e01b03198216635b5e139f60e01b145b8061028557506301ffc9a760e01b6001600160e01b03198316145b92915050565b60605f805461029990610e48565b80601f01602080910402602001604051908101604052809291908181526020018280546102c590610e48565b80156103105780601f106102e757610100808354040283529160200191610310565b820191905f5260205f20905b8154815290600101906020018083116102f357829003601f168201915b5050505050905090565b5f6103248261053e565b505f828152600460205260409020546001600160a01b0316610285565b61034c828233610576565b5050565b6001600160a01b03821661037e57604051633250574960e11b81525f60048201526024015b60405180910390fd5b5f61038a838333610583565b9050836001600160a01b0316816001600160a01b0316146103d8576040516364283d7b60e01b81526001600160a01b0380861660048301526024820184905282166044820152606401610375565b50505050565b6103f883838360405180602001604052805f815250610489565b505050565b5f6102858261053e565b61041381600654610675565b60068054905f61042283610e80565b919050555050565b5f6001600160a01b038216610454576040516322718ad960e21b81525f6004820152602401610375565b506001600160a01b03165f9081526003602052604090205490565b60606001805461029990610e48565b61034c3383836106d6565b610494848484610350565b6103d884848484610774565b60606104ab8261053e565b505f6104c160408051602081019091525f815290565b90505f8151116104df5760405180602001604052805f81525061050a565b806104e98461089a565b6040516020016104fa929190610ebb565b6040516020818303038152906040525b9392505050565b6001600160a01b039182165f90815260056020908152604080832093909416825291909152205460ff1690565b5f818152600260205260408120546001600160a01b03168061028557604051637e27328960e01b815260048101849052602401610375565b6103f8838383600161092a565b5f828152600260205260408120546001600160a01b03908116908316156105af576105af818486610a2e565b6001600160a01b038116156105e9576105ca5f855f5f61092a565b6001600160a01b0381165f90815260036020526040902080545f190190555b6001600160a01b03851615610617576001600160a01b0385165f908152600360205260409020805460010190555b5f8481526002602052604080822080546001600160a01b0319166001600160a01b0389811691821790925591518793918516917fddf252ad1be2c89b69c2b068fc378daa952ba7f163c4a11628f55a4df523b3ef91a4949350505050565b6001600160a01b03821661069e57604051633250574960e11b81525f6004820152602401610375565b5f6106aa83835f610583565b90506001600160a01b038116156103f8576040516339e3563760e11b81525f6004820152602401610375565b6001600160a01b03821661070857604051630b61174360e31b81526001600160a01b0383166004820152602401610375565b6001600160a01b038381165f81815260056020908152604080832094871680845294825291829020805460ff191686151590811790915591519182527f17307eab39ab6107e8899845ad3d59bd9653f200f220920489ca2b5937696c31910160405180910390a3505050565b6001600160a01b0383163b156103d857604051630a85bd0160e11b81526001600160a01b0384169063150b7a02906107b6903390889087908790600401610ecf565b6020604051808303815f875af19250505080156107f0575060408051601f3d908101601f191682019092526107ed91810190610f0b565b60015b610857573d80801561081d576040519150601f19603f3d011682016040523d82523d5f602084013e610822565b606091505b5080515f0361084f57604051633250574960e11b81526001600160a01b0385166004820152602401610375565b805181602001fd5b6001600160e01b03198116630a85bd0160e11b1461089357604051633250574960e11b81526001600160a01b0385166004820152602401610375565b5050505050565b60605f6108a683610a92565b60010190505f8167ffffffffffffffff8111156108c5576108c5610d26565b6040519080825280601f01601f1916602001820160405280156108ef576020820181803683370190505b5090508181016020015b5f19016f181899199a1a9b1b9c1cb0b131b232b360811b600a86061a8153600a85049450846108f957509392505050565b808061093e57506001600160a01b03821615155b156109ff575f61094d8461053e565b90506001600160a01b038316158015906109795750826001600160a01b0316816001600160a01b031614155b801561098c575061098a8184610511565b155b156109b55760405163a9fbf51f60e01b81526001600160a01b0384166004820152602401610375565b81156109fd5783856001600160a01b0316826001600160a01b03167f8c5be1e5ebec7d5bd14f71427d1e84f3dd0314c0f7b2291e5b200ac8c7c3b92560405160405180910390a45b505b50505f90815260046020526040902080546001600160a01b0319166001600160a01b0392909216919091179055565b610a39838383610b69565b6103f8576001600160a01b038316610a6757604051637e27328960e01b815260048101829052602401610375565b60405163177e802f60e01b81526001600160a01b038316600482015260248101829052604401610375565b5f8072184f03e93ff9f4daa797ed6e38ed64bf6a1f0160401b8310610ad05772184f03e93ff9f4daa797ed6e38ed64bf6a1f0160401b830492506040015b6d04ee2d6d415b85acef81000000008310610afc576d04ee2d6d415b85acef8100000000830492506020015b662386f26fc100008310610b1a57662386f26fc10000830492506010015b6305f5e1008310610b32576305f5e100830492506008015b6127108310610b4657612710830492506004015b60648310610b58576064830492506002015b600a83106102855760010192915050565b5f6001600160a01b03831615801590610bc55750826001600160a01b0316846001600160a01b03161480610ba25750610ba28484610511565b80610bc557505f828152600460205260409020546001600160a01b038481169116145b949350505050565b6001600160e01b031981168114610be2575f5ffd5b50565b5f60208284031215610bf5575f5ffd5b813561050a81610bcd565b5f81518084528060208401602086015e5f602082860101526020601f19601f83011685010191505092915050565b602081525f61050a6020830184610c00565b5f60208284031215610c50575f5ffd5b5035919050565b80356001600160a01b0381168114610c6d575f5ffd5b919050565b5f5f60408385031215610c83575f5ffd5b610c8c83610c57565b946020939093013593505050565b5f5f5f60608486031215610cac575f5ffd5b610cb584610c57565b9250610cc360208501610c57565b929592945050506040919091013590565b5f60208284031215610ce4575f5ffd5b61050a82610c57565b5f5f60408385031215610cfe575f5ffd5b610d0783610c57565b915060208301358015158114610d1b575f5ffd5b809150509250929050565b634e487b7160e01b5f52604160045260245ffd5b5f5f5f5f60808587031215610d4d575f5ffd5b610d5685610c57565b9350610d6460208601610c57565b925060408501359150606085013567ffffffffffffffff811115610d86575f5ffd5b8501601f81018713610d96575f5ffd5b803567ffffffffffffffff811115610db057610db0610d26565b604051601f8201601f19908116603f0116810167ffffffffffffffff81118282101715610ddf57610ddf610d26565b604052818152828201602001891015610df6575f5ffd5b816020840160208301375f6020838301015280935050505092959194509250565b5f5f60408385031215610e28575f5ffd5b610e3183610c57565b9150610e3f60208401610c57565b90509250929050565b600181811c90821680610e5c57607f821691505b602082108103610e7a57634e487b7160e01b5f52602260045260245ffd5b50919050565b5f60018201610e9d57634e487b7160e01b5f52601160045260245ffd5b5060010190565b5f81518060208401855e5f93019283525090919050565b5f610bc5610ec98386610ea4565b84610ea4565b6001600160a01b03858116825284166020820152604081018390526080606082018190525f90610f0190830184610c00565b9695505050505050565b5f60208284031215610f1b575f5ffd5b815161050a81610bcd56fea26469706673582212208876ffc71dee87efb8c2a1d84cc058db8e32ed8ce59ce6e3b9fd377577c5d97564736f6c634300081c0033608060405234801561000f575f5ffd5b5060405161111b38038061111b83398101604081905261002e916101b7565b6100385f8361006b565b506100637fb19546dff01e856fb3f010c267a7b1c60363cf8a4664e21cc89c26224620214e8261006b565b5050506101e8565b5f8061007784846100a1565b90508015610098575f8481526001602052604090206100969084610148565b505b90505b92915050565b5f828152602081815260408083206001600160a01b038516845290915281205460ff16610141575f838152602081815260408083206001600160a01b03861684529091529020805460ff191660011790556100f93390565b6001600160a01b0316826001600160a01b0316847f2f8788117e7eff1d82e926ec794901d17c78024a50270940304540a733656f0d60405160405180910390a450600161009b565b505f61009b565b5f610098836001600160a01b0384165f81815260018301602052604081205461014157508154600181810184555f84815260208082209093018490558454848252828601909352604090209190915561009b565b80516001600160a01b03811681146101b2575f5ffd5b919050565b5f5f604083850312156101c8575f5ffd5b6101d18361019c565b91506101df6020840161019c565b90509250929050565b610f26806101f55f395ff3fe608060405234801561000f575f5ffd5b5060043610610132575f3560e01c8063853b5d19116100b4578063c5df91b511610079578063c5df91b5146102d0578063ca0d5358146102e3578063ca15c873146102f6578063d547741f14610309578063e58378bb1461031c578063f2fde38b14610330575f5ffd5b8063853b5d19146102655780639010d07c1461027857806391d14854146102a3578063a217fddf146102b6578063ada8f919146102bd575f5ffd5b80632f2ff15d116100fa5780632f2ff15d146101ef57806336568abe14610202578063755e936f1461021557806381e4c9a31461022857806384cf84e114610252575f5ffd5b806301ffc9a7146101365780631af6c4311461015e578063248a9ca3146101805780632505a3bd146101b05780632ad82eea146101da575b5f5ffd5b610149610144366004610cb5565b610343565b60405190151581526020015b60405180910390f35b61014961016c366004610cdc565b5f9081526003602052604090205460ff1690565b6101a261018e366004610cdc565b5f9081526020819052604090206001015490565b604051908152602001610155565b6101496101be366004610d7e565b80516020918201205f9081526004909152604090205460ff1690565b6101ed6101e8366004610d7e565b61036d565b005b6101ed6101fd366004610de6565b610441565b6101ed610210366004610de6565b61046b565b6101ed610223366004610d7e565b6104a3565b610149610236366004610d7e565b80516020918201205f9081526002909152604090205460ff1690565b6101ed610260366004610cdc565b610566565b6101ed610273366004610d7e565b610631565b61028b610286366004610e10565b6106f3565b6040516001600160a01b039091168152602001610155565b6101496102b1366004610de6565b610711565b6101a25f81565b6101ed6102cb366004610e30565b610739565b6101ed6102de366004610cdc565b610750565b6101ed6102f1366004610d7e565b610815565b6101a2610304366004610cdc565b6108d8565b6101ed610317366004610de6565b6108ee565b6101a25f516020610ed15f395f51905f5281565b6101ed61033e366004610e30565b610912565b5f6001600160e01b03198216635a05180f60e01b148061036757506103678261095e565b92915050565b5f516020610ed15f395f51905f5261038481610992565b81516020808401919091205f818152600490925260409091205460ff16156103ea5760405162461bcd60e51b815260206004820152601460248201527312d95e481a5cc8185b1c9958591e481d985b1a5960621b60448201526064015b60405180910390fd5b5f8181526004602052604090819020805460ff191660011790555133907fcbfa55581c230aeb174d969838d927cdd297755dfb967a33134312f1377ee71d90610434908690610e77565b60405180910390a2505050565b5f8281526020819052604090206001015461045b81610992565b610465838361099c565b50505050565b6001600160a01b03811633146104945760405163334bd91960e11b815260040160405180910390fd5b61049e82826109cf565b505050565b5f516020610ed15f395f51905f526104ba81610992565b81516020808401919091205f818152600290925260409091205460ff1661051f5760405162461bcd60e51b815260206004820152601960248201527843616e6e6f74207265766f6b6520696e76616c6964206b657960381b60448201526064016103e1565b5f8181526002602052604090819020805460ff191690555133907f66e43f8252a3257fe010a4fd6ae50f57624762cc64a6eceadb04b18cfdefac7d90610434908690610e77565b5f516020610ed15f395f51905f5261057d81610992565b5f8281526003602052604090205460ff16156105db5760405162461bcd60e51b815260206004820152601c60248201527f496d616765494420697320616c726561647920737570706f727465640000000060448201526064016103e1565b5f8281526003602052604090819020805460ff19166001179055517f010120d82c0c66b257c0ea628d405b1d3c2d37bb8dd9141f6c5c12cb0375c572906106259084815260200190565b60405180910390a15050565b5f516020610ed15f395f51905f5261064881610992565b81516020808401919091205f818152600290925260409091205460ff16156106a95760405162461bcd60e51b815260206004820152601460248201527312d95e481a5cc8185b1c9958591e481d985b1a5960621b60448201526064016103e1565b5f8181526002602052604090819020805460ff191660011790555133907f0a249d4766726d36cb6d6ac22cf998dc9fc02bb4ff9fda73ec1e3061c8a1db0990610434908690610e77565b5f82815260016020526040812061070a90836109fa565b9392505050565b5f918252602082815260408084206001600160a01b0393909316845291905290205460ff1690565b6107435f82610441565b61074d5f3361046b565b50565b5f516020610ed15f395f51905f5261076781610992565b5f8281526003602052604090205460ff166107ce5760405162461bcd60e51b815260206004820152602160248201527f43616e6e6f74207265766f6b6520756e737570706f7274656420496d616765496044820152601160fa1b60648201526084016103e1565b5f8281526003602052604090819020805460ff19169055517f4072861add20da436ef0a8274b90d102aea17b603f972cc8196d51f1a5d56179906106259084815260200190565b5f516020610ed15f395f51905f5261082c81610992565b81516020808401919091205f818152600490925260409091205460ff166108915760405162461bcd60e51b815260206004820152601960248201527843616e6e6f74207265766f6b6520696e76616c6964206b657960381b60448201526064016103e1565b5f8181526004602052604090819020805460ff191690555133907f69c40cdda8ad6e074bf320a4a76804a6652eb5231bda91b690dcb98010b2707990610434908690610e77565b5f81815260016020526040812061036790610a05565b5f8281526020819052604090206001015461090881610992565b61046583836109cf565b5f61092a5f516020610ed15f395f51905f525f6106f3565b90506109435f516020610ed15f395f51905f52826108ee565b61095a5f516020610ed15f395f51905f5283610441565b5050565b5f6001600160e01b03198216637965db0b60e01b148061036757506301ffc9a760e01b6001600160e01b0319831614610367565b61074d8133610a0e565b5f5f6109a88484610a47565b9050801561070a575f8481526001602052604090206109c79084610ad6565b509392505050565b5f5f6109db8484610aea565b9050801561070a575f8481526001602052604090206109c79084610b53565b5f61070a8383610b67565b5f610367825490565b610a188282610711565b61095a5760405163e2517d3f60e01b81526001600160a01b0382166004820152602481018390526044016103e1565b5f610a528383610711565b610acf575f838152602081815260408083206001600160a01b03861684529091529020805460ff19166001179055610a873390565b6001600160a01b0316826001600160a01b0316847f2f8788117e7eff1d82e926ec794901d17c78024a50270940304540a733656f0d60405160405180910390a4506001610367565b505f610367565b5f61070a836001600160a01b038416610b8d565b5f610af58383610711565b15610acf575f838152602081815260408083206001600160a01b0386168085529252808320805460ff1916905551339286917ff6391f5c32d9c69d2a47ea670b442974b53935d1edc7fd64eb21e047a839171b9190a4506001610367565b5f61070a836001600160a01b038416610bd2565b5f825f018281548110610b7c57610b7c610e89565b905f5260205f200154905092915050565b5f818152600183016020526040812054610acf57508154600181810184555f848152602080822090930184905584548482528286019093526040902091909155610367565b5f8181526001830160205260408120548015610cac575f610bf4600183610e9d565b85549091505f90610c0790600190610e9d565b9050808214610c66575f865f018281548110610c2557610c25610e89565b905f5260205f200154905080875f018481548110610c4557610c45610e89565b5f918252602080832090910192909255918252600188019052604090208390555b8554869080610c7757610c77610ebc565b600190038181905f5260205f20015f90559055856001015f8681526020019081526020015f205f905560019350505050610367565b5f915050610367565b5f60208284031215610cc5575f5ffd5b81356001600160e01b03198116811461070a575f5ffd5b5f60208284031215610cec575f5ffd5b5035919050565b634e487b7160e01b5f52604160045260245ffd5b5f5f67ffffffffffffffff841115610d2157610d21610cf3565b50604051601f19601f85018116603f0116810181811067ffffffffffffffff82111715610d5057610d50610cf3565b604052838152905080828401851015610d67575f5ffd5b838360208301375f60208583010152509392505050565b5f60208284031215610d8e575f5ffd5b813567ffffffffffffffff811115610da4575f5ffd5b8201601f81018413610db4575f5ffd5b610dc384823560208401610d07565b949350505050565b80356001600160a01b0381168114610de1575f5ffd5b919050565b5f5f60408385031215610df7575f5ffd5b82359150610e0760208401610dcb565b90509250929050565b5f5f60408385031215610e21575f5ffd5b50508035926020909101359150565b5f60208284031215610e40575f5ffd5b61070a82610dcb565b5f81518084528060208401602086015e5f602082860101526020601f19601f83011685010191505092915050565b602081525f61070a6020830184610e49565b634e487b7160e01b5f52603260045260245ffd5b8181038181111561036757634e487b7160e01b5f52601160045260245ffd5b634e487b7160e01b5f52603160045260245ffdfeb19546dff01e856fb3f010c267a7b1c60363cf8a4664e21cc89c26224620214ea26469706673582212206aba6e1b163c369c61ad265a802594ac9a6e5cc7978d96205d38c77d45284b5a64736f6c634300081c003360e060405234801561000f575f5ffd5b5060405161144138038061144183398101604081905261002e9161012d565b6001600160a01b03811660c0526100436100b8565b1561006157604051633d23e4d160e11b815260040160405180910390fd5b60405163deafbeef60e01b9061007690610120565b6001600160e01b03199091168152602001604051809103905ff0801580156100a0573d5f5f3e3d5ffd5b506001600160a01b031660a05250600160805261015a565b5f46600114806100c8575046600a145b806100d35750466089145b806100df575046610144145b806100eb5750466101e0145b806100f7575046612105145b8061010357504661a4b1145b8061010f57504661a4ba145b8061011b57504661e708145b905090565b6108af80610b9283390190565b5f6020828403121561013d575f5ffd5b81516001600160a01b0381168114610153575f5ffd5b9392505050565b60805160a05160c0516109f561019d5f395f8181609f0152818161011101526104dd01525f8181605e015261016d01525f818160c8015261020201526109f55ff3fe608060405234801561000f575f5ffd5b5060043610610055575f3560e01c806308c84e70146100595780633fd66f221461009d5780639a44ea84146100c3578063c4fa74e5146100f7578063f4cbae941461010c575b5f5ffd5b6100807f000000000000000000000000000000000000000000000000000000000000000081565b6040516001600160a01b0390911681526020015b60405180910390f35b7f0000000000000000000000000000000000000000000000000000000000000000610080565b6100ea7f000000000000000000000000000000000000000000000000000000000000000081565b604051610094919061063f565b61010a610105366004610692565b610133565b005b6100807f000000000000000000000000000000000000000000000000000000000000000081565b61014a61014536869003860186610826565b610200565b61016361015c36869003860186610826565b8383610293565b6001600160a01b037f00000000000000000000000000000000000000000000000000000000000000001663ab750e756101a96101a4368890038801886108d1565b61059f565b866101400135866040518463ffffffff1660e01b81526004016101ce939291906108f3565b5f6040518083038186803b1580156101e4575f5ffd5b505afa1580156101f6573d5f5f3e3d5ffd5b5050505050505050565b7f000000000000000000000000000000000000000000000000000000000000000060018111156102325761023261062b565b81516040015160018111156102495761024961062b565b146102905760405162461bcd60e51b8152602060048201526012602482015271496e76616c69642070726f6f66206d6f646560701b60448201526064015b60405180910390fd5b50565b816001600160a01b031683606001515f01516001600160a01b0316146102ec5760405162461bcd60e51b815260206004820152600e60248201526d24b73b30b634b210383937bb32b960911b6044820152606401610287565b806001600160e01b0319168360600151602001516001600160e01b0319161461034a5760405162461bcd60e51b815260206004820152601060248201526f24b73b30b634b21039b2b632b1ba37b960811b6044820152606401610287565b46836060015160400151146103945760405162461bcd60e51b815260206004820152601060248201526f125b9d985b1a590818da185a5b881a5960821b6044820152606401610287565b43836060015160600151106103fb5760405162461bcd60e51b815260206004820152602760248201527f496e76616c696420626c6f636b206e756d6265723a20626c6f636b2066726f6d6044820152662066757475726560c81b6064820152608401610287565b436101008460600151606001516104129190610936565b101561046c5760405162461bcd60e51b815260206004820152602360248201527f496e76616c696420626c6f636b206e756d6265723a20626c6f636b20746f6f206044820152621bdb1960ea1b6064820152608401610287565b82606001516060015140836060015160800151146104c15760405162461bcd60e51b8152602060048201526012602482015271092dcecc2d8d2c840c4d8dec6d640d0c2e6d60731b6044820152606401610287565b6020830151604051631af6c43160e01b815260048101919091527f00000000000000000000000000000000000000000000000000000000000000006001600160a01b031690631af6c43190602401602060405180830381865afa15801561052a573d5f5f3e3d5ffd5b505050506040513d601f19601f8201168201806040525081019061054e919061095b565b61059a5760405162461bcd60e51b815260206004820152601760248201527f556e737570706f727465642043616c6c477565737449640000000000000000006044820152606401610287565b505050565b60606001826040015160018111156105b9576105b961062b565b036105fa5750602081810151519151604080516001600160e01b03199092169282019290925260248082019390935281518082039093018352604401905290565b815160208084015160405161061093920161097a565b6040516020818303038152906040529050919050565b919050565b634e487b7160e01b5f52602160045260245ffd5b602081016002831061065f57634e487b7160e01b5f52602160045260245ffd5b91905290565b80356001600160a01b0381168114610626575f5ffd5b80356001600160e01b031981168114610626575f5ffd5b5f5f5f5f8486036102808112156106a7575f5ffd5b6102208112156106b5575f5ffd5b5084935061022084013592506106ce6102408501610665565b91506106dd610260860161067b565b905092959194509250565b634e487b7160e01b5f52604160045260245ffd5b6040516060810167ffffffffffffffff8111828210171561071f5761071f6106e8565b60405290565b604051610100810167ffffffffffffffff8111828210171561071f5761071f6106e8565b6040516080810167ffffffffffffffff8111828210171561071f5761071f6106e8565b60405160a0810167ffffffffffffffff8111828210171561071f5761071f6106e8565b803560028110610626575f5ffd5b5f61014082840312156107ae575f5ffd5b6107b66106fc565b90506107c18261067b565b815282603f8301126107d1575f5ffd5b6107d9610725565b806101208401858111156107eb575f5ffd5b602085015b818110156108085780358452602093840193016107f0565b508160208501526108188161078f565b604085015250505092915050565b5f81830361022081128015610839575f5ffd5b50610842610749565b61084c858561079d565b81526101408401356020820152610160840135604082015260a061017f1983011215610876575f5ffd5b61087e61076c565b915061088d6101808501610665565b825261089c6101a0850161067b565b60208301526101c084013560408301526101e08401356060808401919091526102009094013560808301529283015250919050565b5f61014082840312156108e2575f5ffd5b6108ec838361079d565b9392505050565b606081525f84518060608401528060208701608085015e5f608082850101526080601f19601f830116840101915050836020830152826040830152949350505050565b8082018082111561095557634e487b7160e01b5f52601160045260245ffd5b92915050565b5f6020828403121561096b575f5ffd5b815180151581146108ec575f5ffd5b6001600160e01b0319831681525f6004820183825b60088110156109ae57815183526020928301929091019060010161098f565b50505061010482019050939250505056fea26469706673582212208a5065e54a1406b0d800972df2a3b6f4760e262f024fea5fc356a410d2d3add064736f6c634300081c003360a060405234801561000f575f5ffd5b506040516108af3803806108af83398101604081905261002e91610040565b6001600160e01b03191660805261006e565b5f60208284031215610050575f5ffd5b81516001600160e01b031981168114610067575f5ffd5b9392505050565b6080516108166100995f395f8181605e0152818160ea015281816101f4015261025801526108165ff3fe608060405234801561000f575f5ffd5b5060043610610055575f3560e01c8063053c238d146100595780631599ead51461009e5780633a115bb1146100b357806366cf0e4b14610145578063ab750e7514610158575b5f5ffd5b6100807f000000000000000000000000000000000000000000000000000000000000000081565b6040516001600160e01b031990911681526020015b60405180910390f35b6100b16100ac3660046105b6565b61016b565b005b6101386100c13660046105ed565b60408051808201909152606081525f6020820152604080518082019091526001600160e01b03197f000000000000000000000000000000000000000000000000000000000000000016606082015260648101839052806084810160408051601f198184030181529190528152602001929092525090565b6040516100959190610604565b61013861015336600461064d565b610185565b6100b161016636600461066d565b6101b5565b61018261017882806106e7565b83602001356101d2565b50565b60408051808201909152606081525f60208201526101ae6100c16101a985856102f5565b61037f565b9392505050565b6101cc84846101c76101a986866102f5565b6101d2565b50505050565b6101df60045f8486610731565b6101e891610758565b6001600160e01b0319167f00000000000000000000000000000000000000000000000000000000000000006001600160e01b0319161461028b5761022f60045f8486610731565b61023891610758565b604051632e2ce35360e21b81526001600160e01b031991821660048201527f0000000000000000000000000000000000000000000000000000000000000000909116602482015260440160405180910390fd5b60408051602081018390520160408051601f1981840301815291905280516020909101206102bc8360048187610731565b6040516102ca929190610790565b6040518091039020146102f05760405163439cc0cd60e01b815260040160405180910390fd5b505050565b6102fd610574565b6040805160a0810182528481527fa3acc27117418996340b84e5a90f3ef4c49d22c79e44aad822ec9c313e1eb8e26020820152815180830183529091820190805f81526020015f60ff1681525081526020015f5f1b815260200161037660405180604001604052808681526020015f5f1b8152506104df565b90529392505050565b5f6002806040516103a8907172697363302e52656365697074436c61696d60701b815260120190565b602060405180830381855afa1580156103c3573d5f5f3e3d5ffd5b5050506040513d601f19601f820116820180604052508101906103e691906107b3565b606084015184516020860151608087015160408801515160189060028111156104115761041161079f565b60408a810151602090810151825191820199909952908101969096526060860194909452608085019290925260a084015263ffffffff909116901b60e01b6001600160e01b03191660c082015260f89190911b6001600160f81b03191660c4820152600160fa1b60c882015260ca015b60408051601f198184030181529082905261049b916107ca565b602060405180830381855afa1580156104b6573d5f5f3e3d5ffd5b5050506040513d601f19601f820116820180604052508101906104d991906107b3565b92915050565b5f600280604051610502906b1c9a5cd8cc0b93dd5d1c1d5d60a21b8152600c0190565b602060405180830381855afa15801561051d573d5f5f3e3d5ffd5b5050506040513d601f19601f8201168201806040525081019061054091906107b3565b83516020808601516040805192830194909452928101919091526060810191909152600160f91b6080820152608201610481565b6040518060a001604052805f81526020015f81526020016105a4604080518082019091525f808252602082015290565b81526020015f81526020015f81525090565b5f602082840312156105c6575f5ffd5b813567ffffffffffffffff8111156105dc575f5ffd5b8201604081850312156101ae575f5ffd5b5f602082840312156105fd575f5ffd5b5035919050565b602081525f82516040602084015280518060608501528060208301608086015e5f60808286010152602085015160408501526080601f19601f8301168501019250505092915050565b5f5f6040838503121561065e575f5ffd5b50508035926020909101359150565b5f5f5f5f60608587031215610680575f5ffd5b843567ffffffffffffffff811115610696575f5ffd5b8501601f810187136106a6575f5ffd5b803567ffffffffffffffff8111156106bc575f5ffd5b8760208284010111156106cd575f5ffd5b602091820198909750908601359560400135945092505050565b5f5f8335601e198436030181126106fc575f5ffd5b83018035915067ffffffffffffffff821115610716575f5ffd5b60200191503681900382131561072a575f5ffd5b9250929050565b5f5f8585111561073f575f5ffd5b8386111561074b575f5ffd5b5050820193919092039150565b80356001600160e01b03198116906004841015610789576001600160e01b0319600485900360031b81901b82161691505b5092915050565b818382375f9101908152919050565b634e487b7160e01b5f52602160045260245ffd5b5f602082840312156107c3575f5ffd5b5051919050565b5f82518060208501845e5f92019182525091905056fea2646970667358221220413640f2011045be488af933802c6358dd3230d7fa878ffa729f52b20270a20764736f6c634300081c0033","linkReferences":{}},"methodIdentifiers":{"_setTestVerifier(address)":"9b8b30c8","claim(((bytes4,bytes32[8],uint8),bytes32,uint256,(address,bytes4,uint256,uint256,bytes32)),address,uint256)":"1ded4343","claimed(address)":"c884ef83","prover()":"32a8f30f","reward()":"228cb733","verifier()":"2b7ac3f3"},"id":72}