{"abi":[{"type":"constructor","inputs":[{"name":"_token","type":"address","internalType":"contract IERC20"},{"name":"_startBlockNo","type":"uint256","internalType":"uint256"},{"name":"_endingBlockNo","type":"uint256","internalType":"uint256"},{"name":"_step","type":"uint256","internalType":"uint256"}],"stateMutability":"nonpayable"},{"type":"function","name":"ENDING_BLOCK","inputs":[],"outputs":[{"name":"","type":"uint256","internalType":"uint256"}],"stateMutability":"view"},{"type":"function","name":"STARTING_BLOCK","inputs":[],"outputs":[{"name":"","type":"uint256","internalType":"uint256"}],"stateMutability":"view"},{"type":"function","name":"STEP","inputs":[],"outputs":[{"name":"","type":"uint256","internalType":"uint256"}],"stateMutability":"view"},{"type":"function","name":"TOKEN","inputs":[],"outputs":[{"name":"","type":"address","internalType":"contract IERC20"}],"stateMutability":"view"},{"type":"function","name":"averageBalanceOf","inputs":[{"name":"_owner","type":"address","internalType":"address"}],"outputs":[{"name":"","type":"tuple","internalType":"struct Proof","components":[{"name":"seal","type":"tuple","internalType":"struct Seal","components":[{"name":"verifierSelector","type":"bytes4","internalType":"bytes4"},{"name":"seal","type":"bytes32[8]","internalType":"bytes32[8]"},{"name":"mode","type":"uint8","internalType":"enum ProofMode"}]},{"name":"callGuestId","type":"bytes32","internalType":"bytes32"},{"name":"length","type":"uint256","internalType":"uint256"},{"name":"callAssumptions","type":"tuple","internalType":"struct CallAssumptions","components":[{"name":"proverContractAddress","type":"address","internalType":"address"},{"name":"functionSelector","type":"bytes4","internalType":"bytes4"},{"name":"settleChainId","type":"uint256","internalType":"uint256"},{"name":"settleBlockNumber","type":"uint256","internalType":"uint256"},{"name":"settleBlockHash","type":"bytes32","internalType":"bytes32"}]}]},{"name":"","type":"address","internalType":"address"},{"name":"","type":"uint256","internalType":"uint256"}],"stateMutability":"nonpayable"},{"type":"function","name":"proof","inputs":[],"outputs":[{"name":"","type":"tuple","internalType":"struct Proof","components":[{"name":"seal","type":"tuple","internalType":"struct Seal","components":[{"name":"verifierSelector","type":"bytes4","internalType":"bytes4"},{"name":"seal","type":"bytes32[8]","internalType":"bytes32[8]"},{"name":"mode","type":"uint8","internalType":"enum ProofMode"}]},{"name":"callGuestId","type":"bytes32","internalType":"bytes32"},{"name":"length","type":"uint256","internalType":"uint256"},{"name":"callAssumptions","type":"tuple","internalType":"struct CallAssumptions","components":[{"name":"proverContractAddress","type":"address","internalType":"address"},{"name":"functionSelector","type":"bytes4","internalType":"bytes4"},{"name":"settleChainId","type":"uint256","internalType":"uint256"},{"name":"settleBlockNumber","type":"uint256","internalType":"uint256"},{"name":"settleBlockHash","type":"bytes32","internalType":"bytes32"}]}]}],"stateMutability":"pure"},{"type":"function","name":"setBlock","inputs":[{"name":"blockNo","type":"uint256","internalType":"uint256"}],"outputs":[],"stateMutability":"nonpayable"},{"type":"function","name":"setChain","inputs":[{"name":"chainId","type":"uint256","internalType":"uint256"},{"name":"blockNo","type":"uint256","internalType":"uint256"}],"outputs":[],"stateMutability":"nonpayable"}],"bytecode":{"object":"0x610100604052348015610010575f5ffd5b5060405161086338038061086383398101604081905261002f9161004e565b6001600160a01b0390931660805260a09190915260c05260e052610095565b5f5f5f5f60808587031215610061575f5ffd5b84516001600160a01b0381168114610077575f5ffd5b60208601516040870151606090970151919890975090945092505050565b60805160a05160c05160e0516107816100e25f395f818160ea01526102b301525f818161016501526101df01525f8181608e01526101bd01525f8181610111015261022c01526107815ff3fe608060405234801561000f575f5ffd5b5060043610610085575f3560e01c806387cea3ae1161005857806387cea3ae1461014b578063d3d2e88e14610160578063faf924cf14610187578063ffbc56381461019c575f5ffd5b80630d2d0b9e14610089578063278f4b88146100c357806353d0f255146100e557806382bfefc81461010c575b5f5ffd5b6100b07f000000000000000000000000000000000000000000000000000000000000000081565b6040519081526020015b60405180910390f35b6100d66100d136600461056d565b6101af565b6040516100ba93929190610660565b6100b07f000000000000000000000000000000000000000000000000000000000000000081565b6101337f000000000000000000000000000000000000000000000000000000000000000081565b6040516001600160a01b0390911681526020016100ba565b61015e61015936600461068b565b610302565b005b6100b07f000000000000000000000000000000000000000000000000000000000000000081565b61018f6103c9565b6040516100ba91906106a2565b61015e6101aa3660046106b7565b6103de565b6101b76104c0565b5f8080807f00000000000000000000000000000000000000000000000000000000000000005b7f000000000000000000000000000000000000000000000000000000000000000081116102df5761020d81610302565b6040516370a0823160e01b81526001600160a01b0388811660048301527f000000000000000000000000000000000000000000000000000000000000000016906370a0823190602401602060405180830381865afa158015610271573d5f5f3e3d5ffd5b505050506040513d601f19601f8201168201806040525081019061029591906106d7565b61029f90846106ee565b92506102ac6001836106ee565b91506102d87f0000000000000000000000000000000000000000000000000000000000000000826106ee565b90506101dd565b506102e86103c9565b866102f3838561070d565b94509450945050509193909250565b6040516343e751d760e11b8152600481018290527376dc9aa45aa006a0f63942d8f9f21bd4537972a3906387cea3ae906024016020604051808303815f875af1158015610351573d5f5f3e3d5ffd5b505050506040513d601f19601f82011682018060405250810190610375919061072c565b6103c65760405162461bcd60e51b815260206004820152601b60248201527f4661696c6564206368656174636f646520696e766f636174696f6e000000000060448201526064015b60405180910390fd5b50565b6103d16104c0565b6103d96104ab565b905090565b60405160016208753960e31b0319815260048101839052602481018290527376dc9aa45aa006a0f63942d8f9f21bd4537972a39063ffbc5638906044016020604051808303815f875af1158015610437573d5f5f3e3d5ffd5b505050506040513d601f19601f8201168201806040525081019061045b919061072c565b6104a75760405162461bcd60e51b815260206004820152601b60248201527f4661696c6564206368656174636f646520696e766f636174696f6e000000000060448201526064016103bd565b5050565b6104b36104c0565b6104bb6104c0565b919050565b60405180608001604052806104d3610529565b81526020015f81526020015f81526020016105246040518060a001604052805f6001600160a01b031681526020015f6001600160e01b03191681526020015f81526020015f81526020015f81525090565b905290565b60408051606081019091525f81526020810161054361054e565b81526020015f905290565b6040518061010001604052806008906020820280368337509192915050565b5f6020828403121561057d575f5ffd5b81356001600160a01b0381168114610593575f5ffd5b9392505050565b805180516001600160e01b03191683526020808201519084015f5b60088110156105d45782518252602092830192909101906001016105b5565b50505060400151600281106105f757634e487b7160e01b5f52602160045260245ffd5b61012083015260208181015161014084015260408083015161016085015260609283015180516001600160a01b0316610180860152918201516001600160e01b0319166101a08501528101516101c0840152908101516101e08301526080015161020090910152565b610260810161066f828661059a565b6001600160a01b03939093166102208201526102400152919050565b5f6020828403121561069b575f5ffd5b5035919050565b61022081016106b1828461059a565b92915050565b5f5f604083850312156106c8575f5ffd5b50508035926020909101359150565b5f602082840312156106e7575f5ffd5b5051919050565b808201808211156106b157634e487b7160e01b5f52601160045260245ffd5b5f8261072757634e487b7160e01b5f52601260045260245ffd5b500490565b5f6020828403121561073c575f5ffd5b81518015158114610593575f5ffdfea264697066735822122051b6c917bf09a46b0ed2eb0cb51a231a2fd66600f236ee9c2aace25b6aef83e264736f6c634300081c0033","linkReferences":{}},"methodIdentifiers":{"ENDING_BLOCK()":"d3d2e88e","STARTING_BLOCK()":"0d2d0b9e","STEP()":"53d0f255","TOKEN()":"82bfefc8","averageBalanceOf(address)":"278f4b88","proof()":"faf924cf","setBlock(uint256)":"87cea3ae","setChain(uint256,uint256)":"ffbc5638"},"id":71}