{"abi":[{"type":"function","name":"main","inputs":[{"name":"unverifiedEmail","type":"tuple","internalType":"struct UnverifiedEmail","components":[{"name":"email","type":"string","internalType":"string"},{"name":"dnsRecord","type":"tuple","internalType":"struct DnsRecord","components":[{"name":"name","type":"string","internalType":"string"},{"name":"recordType","type":"uint8","internalType":"uint8"},{"name":"data","type":"string","internalType":"string"},{"name":"ttl","type":"uint64","internalType":"uint64"}]},{"name":"verificationData","type":"tuple","internalType":"struct VerificationData","components":[{"name":"validUntil","type":"uint64","internalType":"uint64"},{"name":"signature","type":"bytes","internalType":"bytes"},{"name":"pubKey","type":"bytes","internalType":"bytes"}]}]}],"outputs":[{"name":"","type":"tuple","internalType":"struct Proof","components":[{"name":"seal","type":"tuple","internalType":"struct Seal","components":[{"name":"verifierSelector","type":"bytes4","internalType":"bytes4"},{"name":"seal","type":"bytes32[8]","internalType":"bytes32[8]"},{"name":"mode","type":"uint8","internalType":"enum ProofMode"}]},{"name":"callGuestId","type":"bytes32","internalType":"bytes32"},{"name":"length","type":"uint256","internalType":"uint256"},{"name":"callAssumptions","type":"tuple","internalType":"struct CallAssumptions","components":[{"name":"proverContractAddress","type":"address","internalType":"address"},{"name":"functionSelector","type":"bytes4","internalType":"bytes4"},{"name":"settleChainId","type":"uint256","internalType":"uint256"},{"name":"settleBlockNumber","type":"uint256","internalType":"uint256"},{"name":"settleBlockHash","type":"bytes32","internalType":"bytes32"}]}]},{"name":"","type":"string","internalType":"string"},{"name":"","type":"string","internalType":"string"}],"stateMutability":"view"},{"type":"function","name":"proof","inputs":[],"outputs":[{"name":"","type":"tuple","internalType":"struct Proof","components":[{"name":"seal","type":"tuple","internalType":"struct Seal","components":[{"name":"verifierSelector","type":"bytes4","internalType":"bytes4"},{"name":"seal","type":"bytes32[8]","internalType":"bytes32[8]"},{"name":"mode","type":"uint8","internalType":"enum ProofMode"}]},{"name":"callGuestId","type":"bytes32","internalType":"bytes32"},{"name":"length","type":"uint256","internalType":"uint256"},{"name":"callAssumptions","type":"tuple","internalType":"struct CallAssumptions","components":[{"name":"proverContractAddress","type":"address","internalType":"address"},{"name":"functionSelector","type":"bytes4","internalType":"bytes4"},{"name":"settleChainId","type":"uint256","internalType":"uint256"},{"name":"settleBlockNumber","type":"uint256","internalType":"uint256"},{"name":"settleBlockHash","type":"bytes32","internalType":"bytes32"}]}]}],"stateMutability":"pure"},{"type":"function","name":"setBlock","inputs":[{"name":"blockNo","type":"uint256","internalType":"uint256"}],"outputs":[],"stateMutability":"nonpayable"},{"type":"function","name":"setChain","inputs":[{"name":"chainId","type":"uint256","internalType":"uint256"},{"name":"blockNo","type":"uint256","internalType":"uint256"}],"outputs":[],"stateMutability":"nonpayable"},{"type":"error","name":"FailedInnerCall","inputs":[]}],"bytecode":{"object":"0x6080604052348015600e575f5ffd5b506114258061001c5f395ff3fe608060405234801561000f575f5ffd5b506004361061004a575f3560e01c806387cea3ae1461004e578063ac6981e514610063578063faf924cf1461008e578063ffbc5638146100a3575b5f5ffd5b61006161005c366004610bae565b6100b6565b005b610076610071366004610bc5565b61017d565b60405161008593929190610cf6565b60405180910390f35b61009661031f565b6040516100859190610d35565b6100616100b1366004610d44565b610334565b6040516343e751d760e11b8152600481018290527376dc9aa45aa006a0f63942d8f9f21bd4537972a3906387cea3ae906024016020604051808303815f875af1158015610105573d5f5f3e3d5ffd5b505050506040513d601f19601f820116820180604052508101906101299190610d64565b61017a5760405162461bcd60e51b815260206004820152601b60248201527f4661696c6564206368656174636f646520696e766f636174696f6e000000000060448201526064015b60405180910390fd5b50565b610185610b01565b6060805f61019a61019586610f20565b610401565b604080518082018252600c81526b42616e6b2053756d6d61727960a01b6020918201529082015180519101209091507f9a097bb10a763c5457143e8ce45a97770182f257c75adb390cb045875037fb72146102475760405162461bcd60e51b815260206004820152602760248201527f696e76616c6964207375626a6563743a206d757374206265202742616e6b2053604482015266756d6d6172792760c81b6064820152608401610171565b5f61028b604051806040016040528060148152602001732aa9a210152d98169cae95ae171fad98169cae9560611b815250836060015161078690919063ffffffff16565b90505f8151116102dd5760405162461bcd60e51b815260206004820152601b60248201527f6e6f2055534420616d6f756e7420666f756e6420696e20626f647900000000006044820152606401610171565b5f815f815181106102f0576102f061102f565b602002602001015190505f6103048261085d565b905061030e61031f565b935193989397509550919350505050565b610327610b01565b61032f61096e565b905090565b60405160016208753960e31b0319815260048101839052602481018290527376dc9aa45aa006a0f63942d8f9f21bd4537972a39063ffbc5638906044016020604051808303815f875af115801561038d573d5f5f3e3d5ffd5b505050506040513d601f19601f820116820180604052508101906103b19190610d64565b6103fd5760405162461bcd60e51b815260206004820152601b60248201527f4661696c6564206368656174636f646520696e766f636174696f6e00000000006044820152606401610171565b5050565b61042c6040518060800160405280606081526020016060815260200160608152602001606081525090565b4282604001515f01516001600160401b0316116104975760405162461bcd60e51b8152602060048201526024808201527f456d61696c50726f6f663a206578706972656420444e532076657269666963616044820152633a34b7b760e11b6064820152608401610171565b61049f610983565b1561052757604080830151015180516020909101207fc16646301c7615357b8f8ee125956b0e5fbf972fa2a0c26feb1f1ae75d04103f146105225760405162461bcd60e51b815260206004820152601e60248201527f4e6f7420612076616c69642056444e532068617264636f646564206b657900006044820152606401610171565b6106c6565b61052f61099a565b156105fd5760408083015181015190516381e4c9a360e01b815273565dca92902ea0ca597b5e62df0b47886b6b7d4d916381e4c9a3916105729190600401611043565b602060405180830381865afa15801561058d573d5f5f3e3d5ffd5b505050506040513d601f19601f820116820180604052508101906105b19190610d64565b6105225760405162461bcd60e51b815260206004820152601b60248201527f4e6f7420612076616c69642056444e53207075626c6963206b657900000000006044820152606401610171565b60408083015181015190516381e4c9a360e01b815273c4e4dc291a5c4debe9ff5a3372f3fdd2e42bac86916381e4c9a39161063b9190600401611043565b602060405180830381865afa158015610656573d5f5f3e3d5ffd5b505050506040513d601f19601f8201168201806040525081019061067a9190610d64565b6106c65760405162461bcd60e51b815260206004820152601b60248201527f4e6f7420612076616c69642056444e53207075626c6963206b657900000000006044820152606401610171565b5f806106e773f4e4fdca9d5d55e64525e314391996a15f7ec6006001611069565b6001600160a01b03168460405160200161070191906110c8565b60408051601f198184030181529082905261071b91611162565b5f60405180830381855afa9150503d805f8114610753576040519150601f19603f3d011682016040523d82523d5f602084013e610758565b606091505b50915091506107678282610a00565b505f8180602001905181019061077d91906111c5565b95945050505050565b60605f806107a973f4e4fdca9d5d55e64525e314391996a15f7ec6006011611069565b6001600160a01b03166040518060400160405280878152602001868152506040516020016107d791906112ad565b60408051601f19818403018152908290526107f191611162565b5f60405180830381855afa9150503d805f8114610829576040519150601f19603f3d011682016040523d82523d5f602084013e61082e565b606091505b509150915061083d8282610a00565b508080602001905181019061085291906112fb565b925050505b92915050565b60608160035b81518110801561089757508181815181106108805761088061102f565b6020910101516001600160f81b031916600160fd1b145b156108ae57806108a6816113c4565b915050610863565b5f8183516108bc91906113dc565b6001600160401b038111156108d3576108d3610d83565b6040519080825280601f01601f1916602001820160405280156108fd576020820181803683370190505b509050815b83518110156109655783818151811061091d5761091d61102f565b01602001516001600160f81b0319168261093785846113dc565b815181106109475761094761102f565b60200101906001600160f81b03191690815f1a905350600101610902565b50949350505050565b610976610b01565b61097e610b01565b919050565b5f61098c610a1c565b8061032f575061032f610a32565b5f46600114806109aa575046600a145b806109b55750466089145b806109c1575046610144145b806109cd5750466101e0145b806109d9575046612105145b806109e557504661a4b1145b806109f157504661a4ba145b8061032f57505061e708461490565b606082610a1557610a1082610ad8565b610857565b5080610857565b5f46617a69148061032f57505062049919461490565b5f8080610a5473f4e4fdca9d5d55e64525e314391996a15f7ec600601e611069565b6001600160a01b03166040515f60405180830381855afa9150503d805f8114610a98576040519150601f19603f3d011682016040523d82523d5f602084013e610a9d565b606091505b5091509150811580610aae57508051155b15610abb575f9250505090565b5f81806020019051810190610ad09190610d64565b949350505050565b805115610ae85780518082602001fd5b604051630a12f52160e11b815260040160405180910390fd5b6040518060800160405280610b14610b6a565b81526020015f81526020015f8152602001610b656040518060a001604052805f6001600160a01b031681526020015f6001600160e01b03191681526020015f81526020015f81526020015f81525090565b905290565b60408051606081019091525f815260208101610b84610b8f565b81526020015f905290565b6040518061010001604052806008906020820280368337509192915050565b5f60208284031215610bbe575f5ffd5b5035919050565b5f60208284031215610bd5575f5ffd5b81356001600160401b03811115610bea575f5ffd5b820160608185031215610bfb575f5ffd5b9392505050565b805180516001600160e01b03191683526020808201519084015f5b6008811015610c3c578251825260209283019290910190600101610c1d565b5050506040015160028110610c5f57634e487b7160e01b5f52602160045260245ffd5b61012083015260208181015161014084015260408083015161016085015260609283015180516001600160a01b0316610180860152918201516001600160e01b0319166101a08501528101516101c0840152908101516101e08301526080015161020090910152565b5f81518084528060208401602086015e5f602082860101526020601f19601f83011685010191505092915050565b610d008185610c02565b6102606102208201525f610d18610260830185610cc8565b828103610240840152610d2b8185610cc8565b9695505050505050565b61022081016108578284610c02565b5f5f60408385031215610d55575f5ffd5b50508035926020909101359150565b5f60208284031215610d74575f5ffd5b81518015158114610bfb575f5ffd5b634e487b7160e01b5f52604160045260245ffd5b604051606081016001600160401b0381118282101715610db957610db9610d83565b60405290565b604051608081016001600160401b0381118282101715610db957610db9610d83565b604051601f8201601f191681016001600160401b0381118282101715610e0957610e09610d83565b604052919050565b5f6001600160401b03821115610e2957610e29610d83565b50601f01601f191660200190565b5f82601f830112610e46575f5ffd5b8135602083015f610e5e610e5984610e11565b610de1565b9050828152858383011115610e71575f5ffd5b828260208301375f92810160200192909252509392505050565b80356001600160401b038116811461097e575f5ffd5b5f60608284031215610eb1575f5ffd5b610eb9610d97565b9050610ec482610e8b565b815260208201356001600160401b03811115610ede575f5ffd5b610eea84828501610e37565b60208301525060408201356001600160401b03811115610f08575f5ffd5b610f1484828501610e37565b60408301525092915050565b5f60608236031215610f30575f5ffd5b610f38610d97565b82356001600160401b03811115610f4d575f5ffd5b610f5936828601610e37565b82525060208301356001600160401b03811115610f74575f5ffd5b83016080368290031215610f86575f5ffd5b610f8e610dbf565b81356001600160401b03811115610fa3575f5ffd5b610faf36828501610e37565b825250602082013560ff81168114610fc5575f5ffd5b602082015260408201356001600160401b03811115610fe2575f5ffd5b610fee36828501610e37565b60408301525061100060608301610e8b565b606082015260208301525060408301356001600160401b03811115611023575f5ffd5b610f1436828601610ea1565b634e487b7160e01b5f52603260045260245ffd5b602081525f610bfb6020830184610cc8565b634e487b7160e01b5f52601160045260245ffd5b6001600160a01b03818116838216019081111561085757610857611055565b6001600160401b0381511682525f6020820151606060208501526110af6060850182610cc8565b9050604083015184820360408601526108528282610cc8565b602081525f8251606060208401526110e36080840182610cc8565b90506020840151601f198483030160408501528051608083526111096080840182610cc8565b905060ff60208301511660208401526040820151838203604085015261112f8282610cc8565b9150506001600160401b03606083015116606084015260408601519250601f19858203016060860152610d2b8184611088565b5f82518060208501845e5f920191825250919050565b5f82601f830112611187575f5ffd5b8151611195610e5982610e11565b8181528460208386010111156111a9575f5ffd5b8160208501602083015e5f918101602001919091529392505050565b5f602082840312156111d5575f5ffd5b81516001600160401b038111156111ea575f5ffd5b8201608081850312156111fb575f5ffd5b611203610dbf565b81516001600160401b03811115611218575f5ffd5b61122486828501611178565b82525060208201516001600160401b0381111561123f575f5ffd5b61124b86828501611178565b60208301525060408201516001600160401b03811115611269575f5ffd5b61127586828501611178565b60408301525060608201516001600160401b03811115611293575f5ffd5b61129f86828501611178565b606083015250949350505050565b60208082525f906060830190830184835b60028110156112f057601f198685030183526112db848351610cc8565b935060209283019291909101906001016112be565b509195945050505050565b5f6020828403121561130b575f5ffd5b81516001600160401b03811115611320575f5ffd5b8201601f81018413611330575f5ffd5b80516001600160401b0381111561134957611349610d83565b8060051b61135960208201610de1565b91825260208184018101929081019087841115611374575f5ffd5b6020850192505b838310156113b95782516001600160401b03811115611398575f5ffd5b6113a789602083890101611178565b8352506020928301929091019061137b565b979650505050505050565b5f600182016113d5576113d5611055565b5060010190565b818103818111156108575761085761105556fea2646970667358221220aa2bd6ac6d5a06bef78319372fad9339d4d829bd05ba2b8b329dbdcaf997786964736f6c634300081c0033","linkReferences":{}},"methodIdentifiers":{"main((string,(string,uint8,string,uint64),(uint64,bytes,bytes)))":"ac6981e5","proof()":"faf924cf","setBlock(uint256)":"87cea3ae","setChain(uint256,uint256)":"ffbc5638"},"id":40}