{"abi":[{"type":"function","name":"crossChainBalanceOf","inputs":[{"name":"_owner","type":"address","internalType":"address"},{"name":"tokens","type":"tuple[]","internalType":"struct Erc20Token[]","components":[{"name":"addr","type":"address","internalType":"address"},{"name":"chainId","type":"uint256","internalType":"uint256"},{"name":"blockNumber","type":"uint256","internalType":"uint256"},{"name":"balance","type":"uint256","internalType":"uint256"}]}],"outputs":[{"name":"","type":"tuple","internalType":"struct Proof","components":[{"name":"seal","type":"tuple","internalType":"struct Seal","components":[{"name":"verifierSelector","type":"bytes4","internalType":"bytes4"},{"name":"seal","type":"bytes32[8]","internalType":"bytes32[8]"},{"name":"mode","type":"uint8","internalType":"enum ProofMode"}]},{"name":"callGuestId","type":"bytes32","internalType":"bytes32"},{"name":"length","type":"uint256","internalType":"uint256"},{"name":"callAssumptions","type":"tuple","internalType":"struct CallAssumptions","components":[{"name":"proverContractAddress","type":"address","internalType":"address"},{"name":"functionSelector","type":"bytes4","internalType":"bytes4"},{"name":"settleChainId","type":"uint256","internalType":"uint256"},{"name":"settleBlockNumber","type":"uint256","internalType":"uint256"},{"name":"settleBlockHash","type":"bytes32","internalType":"bytes32"}]}]},{"name":"","type":"address","internalType":"address"},{"name":"","type":"tuple[]","internalType":"struct Erc20Token[]","components":[{"name":"addr","type":"address","internalType":"address"},{"name":"chainId","type":"uint256","internalType":"uint256"},{"name":"blockNumber","type":"uint256","internalType":"uint256"},{"name":"balance","type":"uint256","internalType":"uint256"}]}],"stateMutability":"nonpayable"},{"type":"function","name":"proof","inputs":[],"outputs":[{"name":"","type":"tuple","internalType":"struct Proof","components":[{"name":"seal","type":"tuple","internalType":"struct Seal","components":[{"name":"verifierSelector","type":"bytes4","internalType":"bytes4"},{"name":"seal","type":"bytes32[8]","internalType":"bytes32[8]"},{"name":"mode","type":"uint8","internalType":"enum ProofMode"}]},{"name":"callGuestId","type":"bytes32","internalType":"bytes32"},{"name":"length","type":"uint256","internalType":"uint256"},{"name":"callAssumptions","type":"tuple","internalType":"struct CallAssumptions","components":[{"name":"proverContractAddress","type":"address","internalType":"address"},{"name":"functionSelector","type":"bytes4","internalType":"bytes4"},{"name":"settleChainId","type":"uint256","internalType":"uint256"},{"name":"settleBlockNumber","type":"uint256","internalType":"uint256"},{"name":"settleBlockHash","type":"bytes32","internalType":"bytes32"}]}]}],"stateMutability":"pure"},{"type":"function","name":"setBlock","inputs":[{"name":"blockNo","type":"uint256","internalType":"uint256"}],"outputs":[],"stateMutability":"nonpayable"},{"type":"function","name":"setChain","inputs":[{"name":"chainId","type":"uint256","internalType":"uint256"},{"name":"blockNo","type":"uint256","internalType":"uint256"}],"outputs":[],"stateMutability":"nonpayable"}],"bytecode":{"object":"0x6080604052348015600e575f5ffd5b506107ea8061001c5f395ff3fe608060405234801561000f575f5ffd5b506004361061004a575f3560e01c806387cea3ae1461004e5780639666fad514610063578063faf924cf1461008e578063ffbc5638146100a3575b5f5ffd5b61006161005c36600461043b565b6100b6565b005b6100766100713660046104d6565b61017d565b6040516100859392919061069b565b60405180910390f35b610096610297565b604051610085919061072e565b6100616100b1366004610743565b6102ac565b6040516343e751d760e11b8152600481018290527376dc9aa45aa006a0f63942d8f9f21bd4537972a3906387cea3ae906024016020604051808303815f875af1158015610105573d5f5f3e3d5ffd5b505050506040513d601f19601f820116820180604052508101906101299190610763565b61017a5760405162461bcd60e51b815260206004820152601b60248201527f4661696c6564206368656174636f646520696e766f636174696f6e000000000060448201526064015b60405180910390fd5b50565b61018561038e565b5f6060815b8451811015610287576101d78582815181106101a8576101a8610789565b6020026020010151602001518683815181106101c6576101c6610789565b6020026020010151604001516102ac565b8481815181106101e9576101e9610789565b6020908102919091010151516040516370a0823160e01b81526001600160a01b038881166004830152909116906370a0823190602401602060405180830381865afa15801561023a573d5f5f3e3d5ffd5b505050506040513d601f19601f8201168201806040525081019061025e919061079d565b85828151811061027057610270610789565b60209081029190910101516060015260010161018a565b50610290610297565b9592505050565b61029f61038e565b6102a7610379565b905090565b60405160016208753960e31b0319815260048101839052602481018290527376dc9aa45aa006a0f63942d8f9f21bd4537972a39063ffbc5638906044016020604051808303815f875af1158015610305573d5f5f3e3d5ffd5b505050506040513d601f19601f820116820180604052508101906103299190610763565b6103755760405162461bcd60e51b815260206004820152601b60248201527f4661696c6564206368656174636f646520696e766f636174696f6e00000000006044820152606401610171565b5050565b61038161038e565b61038961038e565b919050565b60405180608001604052806103a16103f7565b81526020015f81526020015f81526020016103f26040518060a001604052805f6001600160a01b031681526020015f6001600160e01b03191681526020015f81526020015f81526020015f81525090565b905290565b60408051606081019091525f81526020810161041161041c565b81526020015f905290565b6040518061010001604052806008906020820280368337509192915050565b5f6020828403121561044b575f5ffd5b5035919050565b80356001600160a01b0381168114610389575f5ffd5b634e487b7160e01b5f52604160045260245ffd5b6040516080810167ffffffffffffffff8111828210171561049f5761049f610468565b60405290565b604051601f8201601f1916810167ffffffffffffffff811182821017156104ce576104ce610468565b604052919050565b5f5f604083850312156104e7575f5ffd5b6104f083610452565b9150602083013567ffffffffffffffff81111561050b575f5ffd5b8301601f8101851361051b575f5ffd5b803567ffffffffffffffff81111561053557610535610468565b61054460208260051b016104a5565b8082825260208201915060208360071b850101925087831115610565575f5ffd5b6020840193505b828410156105c75760808489031215610583575f5ffd5b61058b61047c565b61059485610452565b8152602085810135818301526040808701359083015260608087013590830152908352608090940193919091019061056c565b809450505050509250929050565b805180516001600160e01b03191683526020808201519084015f5b600881101561060f5782518252602092830192909101906001016105f0565b505050604001516002811061063257634e487b7160e01b5f52602160045260245ffd5b61012083015260208181015161014084015260408083015161016085015260609283015180516001600160a01b0316610180860152918201516001600160e01b0319166101a08501528101516101c0840152908101516101e08301526080015161020090910152565b5f61026082016106ab83876105d5565b6001600160a01b03851661022084015261026061024084015283519081905260208401906102808401905f5b8181101561072157835180516001600160a01b03168452602080820151818601526040808301519086015260609182015191850191909152909301926080909201916001016106d7565b5090979650505050505050565b610220810161073d82846105d5565b92915050565b5f5f60408385031215610754575f5ffd5b50508035926020909101359150565b5f60208284031215610773575f5ffd5b81518015158114610782575f5ffd5b9392505050565b634e487b7160e01b5f52603260045260245ffd5b5f602082840312156107ad575f5ffd5b505191905056fea2646970667358221220cc002add02150b99881773e8077ea882e49036bbe620654efd3b9842ddd4436764736f6c634300081c0033","linkReferences":{}},"methodIdentifiers":{"crossChainBalanceOf(address,(address,uint256,uint256,uint256)[])":"9666fad5","proof()":"faf924cf","setBlock(uint256)":"87cea3ae","setChain(uint256,uint256)":"ffbc5638"},"id":73}