{"abi":[{"type":"constructor","inputs":[{"name":"_prover","type":"address","internalType":"address"},{"name":"_nft","type":"address","internalType":"contract WhaleBadgeNFT"}],"stateMutability":"nonpayable"},{"type":"function","name":"_setTestVerifier","inputs":[{"name":"newVerifier","type":"address","internalType":"contract IProofVerifier"}],"outputs":[],"stateMutability":"nonpayable"},{"type":"function","name":"claim","inputs":[{"name":"","type":"tuple","internalType":"struct Proof","components":[{"name":"seal","type":"tuple","internalType":"struct Seal","components":[{"name":"verifierSelector","type":"bytes4","internalType":"bytes4"},{"name":"seal","type":"bytes32[8]","internalType":"bytes32[8]"},{"name":"mode","type":"uint8","internalType":"enum ProofMode"}]},{"name":"callGuestId","type":"bytes32","internalType":"bytes32"},{"name":"length","type":"uint256","internalType":"uint256"},{"name":"callAssumptions","type":"tuple","internalType":"struct CallAssumptions","components":[{"name":"proverContractAddress","type":"address","internalType":"address"},{"name":"functionSelector","type":"bytes4","internalType":"bytes4"},{"name":"settleChainId","type":"uint256","internalType":"uint256"},{"name":"settleBlockNumber","type":"uint256","internalType":"uint256"},{"name":"settleBlockHash","type":"bytes32","internalType":"bytes32"}]}]},{"name":"claimer","type":"address","internalType":"address"},{"name":"tokens","type":"tuple[]","internalType":"struct Erc20Token[]","components":[{"name":"addr","type":"address","internalType":"address"},{"name":"chainId","type":"uint256","internalType":"uint256"},{"name":"blockNumber","type":"uint256","internalType":"uint256"},{"name":"balance","type":"uint256","internalType":"uint256"}]}],"outputs":[],"stateMutability":"nonpayable"},{"type":"function","name":"claimed","inputs":[{"name":"","type":"address","internalType":"address"}],"outputs":[{"name":"","type":"bool","internalType":"bool"}],"stateMutability":"view"},{"type":"function","name":"prover","inputs":[],"outputs":[{"name":"","type":"address","internalType":"address"}],"stateMutability":"view"},{"type":"function","name":"reward","inputs":[],"outputs":[{"name":"","type":"address","internalType":"contract WhaleBadgeNFT"}],"stateMutability":"view"},{"type":"function","name":"verifier","inputs":[],"outputs":[{"name":"","type":"address","internalType":"contract IProofVerifier"}],"stateMutability":"view"},{"type":"error","name":"InvalidChainId","inputs":[]}],"bytecode":{"object":"0x60a060405234801561000f575f5ffd5b506040516139da3803806139da83398101604081905261002e916103dd565b610036610079565b5f80546001600160a01b03199081166001600160a01b03938416179091553360805260018054821694831694909417909355600380549093169116179055610466565b5f610082610214565b1561017b575f3030604051610096906103ac565b6001600160a01b03928316815291166020820152604001604051809103905ff0801580156100c6573d5f5f3e3d5ffd5b506040516384cf84e160e01b81527fdcb00648ecc90d8bfe92aa8d51061beb0bcb110d274fc4a517e526574233d36b60048201529091506001600160a01b038216906384cf84e1906024015f604051808303815f87803b158015610128575f5ffd5b505af115801561013a573d5f5f3e3d5ffd5b505050508060405161014b906103b9565b6001600160a01b039091168152602001604051809103905ff080158015610174573d5f5f3e3d5ffd5b5091505090565b610183610230565b156101a5575f735553cf6ce25e3f80fad2866f6230346159ecd89c5b92915050565b6101ad610296565b156101fb575f739e30dc3e49c4d47f982902710616dcc4b6ff7bf5737e231cfc3e3b549633d5ad61c30f07dd4d408ad3738972b6ff413ac04e61e19f07d7f3bd980d0cc3215b949350505050565b604051633d23e4d160e11b815260040160405180910390fd5b5f61021d6102f8565b8061022b575061022b61030e565b905090565b5f4660011480610240575046600a145b8061024b5750466089145b80610257575046610144145b806102635750466101e0145b8061026f575046612105145b8061027b57504661a4b1145b8061028757504661a4ba145b8061022b57505061e708461490565b5f4662aa36a714806102a957504661012c145b806102b55750466112c1145b806102c157504661e705145b806102ce57504662013882145b806102db57504662014a34145b806102e857504662066eee145b8061022b57505062aa37dc461490565b5f46617a69148061022b57505062049919461490565b5f808061033073f4e4fdca9d5d55e64525e314391996a15f7ec600601e610415565b6001600160a01b03166040515f60405180830381855afa9150503d805f8114610374576040519150601f19603f3d011682016040523d82523d5f602084013e610379565b606091505b509150915081158061038a57508051155b15610397575f9250505090565b5f818060200190518101906101f39190610440565b61111b8061147e83390190565b6114418061259983390190565b6001600160a01b03811681146103da575f5ffd5b50565b5f5f604083850312156103ee575f5ffd5b82516103f9816103c6565b602084015190925061040a816103c6565b809150509250929050565b6001600160a01b03818116838216019081111561019f57634e487b7160e01b5f52601160045260245ffd5b5f60208284031215610450575f5ffd5b8151801515811461045f575f5ffd5b9392505050565b60805161100061047e5f395f61011e01526110005ff3fe608060405234801561000f575f5ffd5b5060043610610060575f3560e01c8063228cb733146100645780632b7ac3f31461009457806332a8f30f146100a65780639b8b30c8146100b9578063c884ef83146100ce578063d03fc7e414610100575b5f5ffd5b600354610077906001600160a01b031681565b6040516001600160a01b0390911681526020015b60405180910390f35b5f54610077906001600160a01b031681565b600154610077906001600160a01b031681565b6100cc6100c7366004610a18565b610113565b005b6100f06100dc366004610a18565b60026020525f908152604090205460ff1681565b604051901515815260200161008b565b6100cc61010e366004610aef565b610314565b336001600160a01b037f0000000000000000000000000000000000000000000000000000000000000000161461019a5760405162461bcd60e51b815260206004820152602160248201527f4f6e6c79206465706c6f7965722063616e206368616e676520766572696669656044820152603960f91b60648201526084015b60405180910390fd5b6101a2610460565b806101b057506101b061047c565b6102225760405162461bcd60e51b815260206004820152603760248201527f4368616e67696e6720766572696669657273206973206f6e6c7920616c6c6f7760448201527f6564206f6e206465766e6574206f7220746573746e65740000000000000000006064820152608401610191565b5f6001600160a01b0316816001600160a01b0316633fd66f226040518163ffffffff1660e01b8152600401602060405180830381865afa158015610268573d5f5f3e3d5ffd5b505050506040513d601f19601f8201168201806040525081019061028c9190610c0c565b6001600160a01b0316036102f35760405162461bcd60e51b815260206004820152602860248201527f56657269666965722773207265706f7369746f72792061646472657373206973604482015267081b9bdd081cd95d60c21b6064820152608401610191565b5f80546001600160a01b0319166001600160a01b0392909216919091179055565b6001546001600160a01b0316639666fad560e01b61033282826104de565b6001600160a01b0384165f9081526002602052604090205460ff161561038c5760405162461bcd60e51b815260206004820152600f60248201526e105b1c9958591e4818db185a5b5959608a1b6044820152606401610191565b825115610459575f805b84518110156103d2578481815181106103b1576103b1610c27565b602002602001015160600151826103c89190610c4f565b9150600101610396565b506509184e72a0008110610457576001600160a01b038581165f8181526002602052604090819020805460ff1916600117905560035490516335313c2160e11b8152600481019290925290911690636a627842906024015f604051808303815f87803b158015610440575f5ffd5b505af1158015610452573d5f5f3e3d5ffd5b505050505b505b5050505050565b5f610469610553565b806104775750610477610569565b905090565b5f4662aa36a7148061048f57504661012c145b8061049b5750466112c1145b806104a757504661e705145b806104b457504662013882145b806104c157504662014a34145b806104ce57504662066eee145b8061047757505062aa37dc461490565b5f5f6104e861060f565b5f5460405163c4fa74e560e01b81529294509092506001600160a01b03169063c4fa74e590610521908590859089908990600401610d2e565b5f6040518083038186803b158015610537575f5ffd5b505afa158015610549573d5f5f3e3d5ffd5b5050505050505050565b5f46617a69148061047757505062049919461490565b5f808061058b73f4e4fdca9d5d55e64525e314391996a15f7ec600601e610d6e565b6001600160a01b03166040515f60405180830381855afa9150503d805f81146105cf576040519150601f19603f3d011682016040523d82523d5f602084013e6105d4565b606091505b50915091508115806105e557508051155b156105f2575f9250505090565b5f818060200190518101906106079190610d8d565b949350505050565b610617610954565b5f806106263660048184610dac565b8101906106339190610e74565b90505f602080806106448180610c4f565b61064e9190610c4f565b6106589190610c4f565b6106629190610c4f565b6020808061067261010082610c4f565b61067c9190610c4f565b6106869190610c4f565b6106909190610c4f565b61069b906004610c4f565b6106a59190610c4f565b90505f602080806106b68180610c4f565b6106c09190610c4f565b6106ca9190610c4f565b6106d49190610c4f565b602080806106e28180610c4f565b6106ec9190610c4f565b6106f69190610c4f565b6107009190610c4f565b6020808061071061010082610c4f565b61071a9190610c4f565b6107249190610c4f565b61072e9190610c4f565b6107389190610c4f565b84604001516107479190610f49565b6107519190610f49565b90505f61075e8284610c4f565b90505f80366020808061077361010082610c4f565b61077d9190610c4f565b6107879190610c4f565b6107919190610c4f565b61079c906004610c4f565b90602080806107ab8180610c4f565b6107b59190610c4f565b6107bf9190610c4f565b6107c99190610c4f565b602080806107d961010082610c4f565b6107e39190610c4f565b6107ed9190610c4f565b6107f79190610c4f565b610802906004610c4f565b61080c9190610c4f565b9261081993929190610dac565b8080601f0160208091040260200160405190810160405280939291908181526020018383808284375f92018290525093945061085d92508591508790503684610dac565b8080601f0160208091040260200160405190810160405280939291908181526020018383808284375f92018290525093945085925061089e915061093f9050565b6040516020016108ae9190610f5c565b60408051601f19818403018152908290526108ce92918590602001610f82565b60405160208183030381529060405290505f6002826040516108f09190610fa8565b602060405180830381855afa15801561090b573d5f5f3e3d5ffd5b5050506040513d601f19601f8201168201806040525081019061092e9190610fb3565b979a97995096975050505050505050565b610947610954565b61094f610954565b919050565b60405180608001604052806109676109bd565b81526020015f81526020015f81526020016109b86040518060a001604052805f6001600160a01b031681526020015f6001600160e01b03191681526020015f81526020015f81526020015f81525090565b905290565b60408051606081019091525f8152602081016109d76109e2565b81526020015f905290565b6040518061010001604052806008906020820280368337509192915050565b6001600160a01b0381168114610a15575f5ffd5b50565b5f60208284031215610a28575f5ffd5b8135610a3381610a01565b9392505050565b634e487b7160e01b5f52604160045260245ffd5b6040516080810167ffffffffffffffff81118282101715610a7157610a71610a3a565b60405290565b6040516060810167ffffffffffffffff81118282101715610a7157610a71610a3a565b604051610100810167ffffffffffffffff81118282101715610a7157610a71610a3a565b604051601f8201601f1916810167ffffffffffffffff81118282101715610ae757610ae7610a3a565b604052919050565b5f5f5f838503610260811215610b03575f5ffd5b610220811215610b11575f5ffd5b50839250610220840135610b2481610a01565b915061024084013567ffffffffffffffff811115610b40575f5ffd5b8401601f81018613610b50575f5ffd5b803567ffffffffffffffff811115610b6a57610b6a610a3a565b610b7960208260051b01610abe565b8082825260208201915060208360071b850101925088831115610b9a575f5ffd5b6020840193505b82841015610bfe576080848a031215610bb8575f5ffd5b610bc0610a4e565b8435610bcb81610a01565b81526020858101358183015260408087013590830152606080870135908301529083526080909401939190910190610ba1565b809450505050509250925092565b5f60208284031215610c1c575f5ffd5b8151610a3381610a01565b634e487b7160e01b5f52603260045260245ffd5b634e487b7160e01b5f52601160045260245ffd5b80820180821115610c6257610c62610c3b565b92915050565b805180516001600160e01b03191683526020808201519084015f5b6008811015610ca2578251825260209283019290910190600101610c83565b5050506040015160028110610cc557634e487b7160e01b5f52602160045260245ffd5b61012083015260208181015161014084015260408083015161016085015260609283015180516001600160a01b0316610180860152918201516001600160e01b0319166101a08501528101516101c0840152908101516101e08301526080015161020090910152565b6102808101610d3d8287610c68565b6102208201949094526001600160a01b03929092166102408301526001600160e01b03191661026090910152919050565b6001600160a01b038181168382160190811115610c6257610c62610c3b565b5f60208284031215610d9d575f5ffd5b81518015158114610a33575f5ffd5b5f5f85851115610dba575f5ffd5b83861115610dc6575f5ffd5b5050820193919092039150565b80356001600160e01b03198116811461094f575f5ffd5b80356002811061094f575f5ffd5b5f60a08284031215610e08575f5ffd5b60405160a0810167ffffffffffffffff81118282101715610e2b57610e2b610a3a565b6040529050808235610e3c81610a01565b8152610e4a60208401610dd3565b60208201526040838101359082015260608084013590820152608092830135920191909152919050565b5f81830361022081128015610e87575f5ffd5b50610e90610a4e565b610140821215610e9e575f5ffd5b610ea6610a77565b9150610eb184610dd3565b825284603f850112610ec1575f5ffd5b610ec9610a9a565b80610120860187811115610edb575f5ffd5b602087015b81811015610ef8578035845260209384019301610ee0565b50816020860152610f0881610dea565b6040868101919091529484525050506101408401356020820152610160840135918101829052610f3c856101808601610df8565b6060820152949350505050565b81810381811115610c6257610c62610c3b565b6102208101610c628284610c68565b5f81518060208401855e5f93019283525090919050565b5f610f9f610f99610f938488610f6b565b86610f6b565b84610f6b565b95945050505050565b5f610a338284610f6b565b5f60208284031215610fc3575f5ffd5b505191905056fea2646970667358221220213b42bde82193dba37ac2d54f5171cbd79646d8ce55bccf15c7cb6d2934009c64736f6c634300081c0033608060405234801561000f575f5ffd5b5060405161111b38038061111b83398101604081905261002e916101b7565b6100385f8361006b565b506100637fb19546dff01e856fb3f010c267a7b1c60363cf8a4664e21cc89c26224620214e8261006b565b5050506101e8565b5f8061007784846100a1565b90508015610098575f8481526001602052604090206100969084610148565b505b90505b92915050565b5f828152602081815260408083206001600160a01b038516845290915281205460ff16610141575f838152602081815260408083206001600160a01b03861684529091529020805460ff191660011790556100f93390565b6001600160a01b0316826001600160a01b0316847f2f8788117e7eff1d82e926ec794901d17c78024a50270940304540a733656f0d60405160405180910390a450600161009b565b505f61009b565b5f610098836001600160a01b0384165f81815260018301602052604081205461014157508154600181810184555f84815260208082209093018490558454848252828601909352604090209190915561009b565b80516001600160a01b03811681146101b2575f5ffd5b919050565b5f5f604083850312156101c8575f5ffd5b6101d18361019c565b91506101df6020840161019c565b90509250929050565b610f26806101f55f395ff3fe608060405234801561000f575f5ffd5b5060043610610132575f3560e01c8063853b5d19116100b4578063c5df91b511610079578063c5df91b5146102d0578063ca0d5358146102e3578063ca15c873146102f6578063d547741f14610309578063e58378bb1461031c578063f2fde38b14610330575f5ffd5b8063853b5d19146102655780639010d07c1461027857806391d14854146102a3578063a217fddf146102b6578063ada8f919146102bd575f5ffd5b80632f2ff15d116100fa5780632f2ff15d146101ef57806336568abe14610202578063755e936f1461021557806381e4c9a31461022857806384cf84e114610252575f5ffd5b806301ffc9a7146101365780631af6c4311461015e578063248a9ca3146101805780632505a3bd146101b05780632ad82eea146101da575b5f5ffd5b610149610144366004610cb5565b610343565b60405190151581526020015b60405180910390f35b61014961016c366004610cdc565b5f9081526003602052604090205460ff1690565b6101a261018e366004610cdc565b5f9081526020819052604090206001015490565b604051908152602001610155565b6101496101be366004610d7e565b80516020918201205f9081526004909152604090205460ff1690565b6101ed6101e8366004610d7e565b61036d565b005b6101ed6101fd366004610de6565b610441565b6101ed610210366004610de6565b61046b565b6101ed610223366004610d7e565b6104a3565b610149610236366004610d7e565b80516020918201205f9081526002909152604090205460ff1690565b6101ed610260366004610cdc565b610566565b6101ed610273366004610d7e565b610631565b61028b610286366004610e10565b6106f3565b6040516001600160a01b039091168152602001610155565b6101496102b1366004610de6565b610711565b6101a25f81565b6101ed6102cb366004610e30565b610739565b6101ed6102de366004610cdc565b610750565b6101ed6102f1366004610d7e565b610815565b6101a2610304366004610cdc565b6108d8565b6101ed610317366004610de6565b6108ee565b6101a25f516020610ed15f395f51905f5281565b6101ed61033e366004610e30565b610912565b5f6001600160e01b03198216635a05180f60e01b148061036757506103678261095e565b92915050565b5f516020610ed15f395f51905f5261038481610992565b81516020808401919091205f818152600490925260409091205460ff16156103ea5760405162461bcd60e51b815260206004820152601460248201527312d95e481a5cc8185b1c9958591e481d985b1a5960621b60448201526064015b60405180910390fd5b5f8181526004602052604090819020805460ff191660011790555133907fcbfa55581c230aeb174d969838d927cdd297755dfb967a33134312f1377ee71d90610434908690610e77565b60405180910390a2505050565b5f8281526020819052604090206001015461045b81610992565b610465838361099c565b50505050565b6001600160a01b03811633146104945760405163334bd91960e11b815260040160405180910390fd5b61049e82826109cf565b505050565b5f516020610ed15f395f51905f526104ba81610992565b81516020808401919091205f818152600290925260409091205460ff1661051f5760405162461bcd60e51b815260206004820152601960248201527843616e6e6f74207265766f6b6520696e76616c6964206b657960381b60448201526064016103e1565b5f8181526002602052604090819020805460ff191690555133907f66e43f8252a3257fe010a4fd6ae50f57624762cc64a6eceadb04b18cfdefac7d90610434908690610e77565b5f516020610ed15f395f51905f5261057d81610992565b5f8281526003602052604090205460ff16156105db5760405162461bcd60e51b815260206004820152601c60248201527f496d616765494420697320616c726561647920737570706f727465640000000060448201526064016103e1565b5f8281526003602052604090819020805460ff19166001179055517f010120d82c0c66b257c0ea628d405b1d3c2d37bb8dd9141f6c5c12cb0375c572906106259084815260200190565b60405180910390a15050565b5f516020610ed15f395f51905f5261064881610992565b81516020808401919091205f818152600290925260409091205460ff16156106a95760405162461bcd60e51b815260206004820152601460248201527312d95e481a5cc8185b1c9958591e481d985b1a5960621b60448201526064016103e1565b5f8181526002602052604090819020805460ff191660011790555133907f0a249d4766726d36cb6d6ac22cf998dc9fc02bb4ff9fda73ec1e3061c8a1db0990610434908690610e77565b5f82815260016020526040812061070a90836109fa565b9392505050565b5f918252602082815260408084206001600160a01b0393909316845291905290205460ff1690565b6107435f82610441565b61074d5f3361046b565b50565b5f516020610ed15f395f51905f5261076781610992565b5f8281526003602052604090205460ff166107ce5760405162461bcd60e51b815260206004820152602160248201527f43616e6e6f74207265766f6b6520756e737570706f7274656420496d616765496044820152601160fa1b60648201526084016103e1565b5f8281526003602052604090819020805460ff19169055517f4072861add20da436ef0a8274b90d102aea17b603f972cc8196d51f1a5d56179906106259084815260200190565b5f516020610ed15f395f51905f5261082c81610992565b81516020808401919091205f818152600490925260409091205460ff166108915760405162461bcd60e51b815260206004820152601960248201527843616e6e6f74207265766f6b6520696e76616c6964206b657960381b60448201526064016103e1565b5f8181526004602052604090819020805460ff191690555133907f69c40cdda8ad6e074bf320a4a76804a6652eb5231bda91b690dcb98010b2707990610434908690610e77565b5f81815260016020526040812061036790610a05565b5f8281526020819052604090206001015461090881610992565b61046583836109cf565b5f61092a5f516020610ed15f395f51905f525f6106f3565b90506109435f516020610ed15f395f51905f52826108ee565b61095a5f516020610ed15f395f51905f5283610441565b5050565b5f6001600160e01b03198216637965db0b60e01b148061036757506301ffc9a760e01b6001600160e01b0319831614610367565b61074d8133610a0e565b5f5f6109a88484610a47565b9050801561070a575f8481526001602052604090206109c79084610ad6565b509392505050565b5f5f6109db8484610aea565b9050801561070a575f8481526001602052604090206109c79084610b53565b5f61070a8383610b67565b5f610367825490565b610a188282610711565b61095a5760405163e2517d3f60e01b81526001600160a01b0382166004820152602481018390526044016103e1565b5f610a528383610711565b610acf575f838152602081815260408083206001600160a01b03861684529091529020805460ff19166001179055610a873390565b6001600160a01b0316826001600160a01b0316847f2f8788117e7eff1d82e926ec794901d17c78024a50270940304540a733656f0d60405160405180910390a4506001610367565b505f610367565b5f61070a836001600160a01b038416610b8d565b5f610af58383610711565b15610acf575f838152602081815260408083206001600160a01b0386168085529252808320805460ff1916905551339286917ff6391f5c32d9c69d2a47ea670b442974b53935d1edc7fd64eb21e047a839171b9190a4506001610367565b5f61070a836001600160a01b038416610bd2565b5f825f018281548110610b7c57610b7c610e89565b905f5260205f200154905092915050565b5f818152600183016020526040812054610acf57508154600181810184555f848152602080822090930184905584548482528286019093526040902091909155610367565b5f8181526001830160205260408120548015610cac575f610bf4600183610e9d565b85549091505f90610c0790600190610e9d565b9050808214610c66575f865f018281548110610c2557610c25610e89565b905f5260205f200154905080875f018481548110610c4557610c45610e89565b5f918252602080832090910192909255918252600188019052604090208390555b8554869080610c7757610c77610ebc565b600190038181905f5260205f20015f90559055856001015f8681526020019081526020015f205f905560019350505050610367565b5f915050610367565b5f60208284031215610cc5575f5ffd5b81356001600160e01b03198116811461070a575f5ffd5b5f60208284031215610cec575f5ffd5b5035919050565b634e487b7160e01b5f52604160045260245ffd5b5f5f67ffffffffffffffff841115610d2157610d21610cf3565b50604051601f19601f85018116603f0116810181811067ffffffffffffffff82111715610d5057610d50610cf3565b604052838152905080828401851015610d67575f5ffd5b838360208301375f60208583010152509392505050565b5f60208284031215610d8e575f5ffd5b813567ffffffffffffffff811115610da4575f5ffd5b8201601f81018413610db4575f5ffd5b610dc384823560208401610d07565b949350505050565b80356001600160a01b0381168114610de1575f5ffd5b919050565b5f5f60408385031215610df7575f5ffd5b82359150610e0760208401610dcb565b90509250929050565b5f5f60408385031215610e21575f5ffd5b50508035926020909101359150565b5f60208284031215610e40575f5ffd5b61070a82610dcb565b5f81518084528060208401602086015e5f602082860101526020601f19601f83011685010191505092915050565b602081525f61070a6020830184610e49565b634e487b7160e01b5f52603260045260245ffd5b8181038181111561036757634e487b7160e01b5f52601160045260245ffd5b634e487b7160e01b5f52603160045260245ffdfeb19546dff01e856fb3f010c267a7b1c60363cf8a4664e21cc89c26224620214ea26469706673582212206aba6e1b163c369c61ad265a802594ac9a6e5cc7978d96205d38c77d45284b5a64736f6c634300081c003360e060405234801561000f575f5ffd5b5060405161144138038061144183398101604081905261002e9161012d565b6001600160a01b03811660c0526100436100b8565b1561006157604051633d23e4d160e11b815260040160405180910390fd5b60405163deafbeef60e01b9061007690610120565b6001600160e01b03199091168152602001604051809103905ff0801580156100a0573d5f5f3e3d5ffd5b506001600160a01b031660a05250600160805261015a565b5f46600114806100c8575046600a145b806100d35750466089145b806100df575046610144145b806100eb5750466101e0145b806100f7575046612105145b8061010357504661a4b1145b8061010f57504661a4ba145b8061011b57504661e708145b905090565b6108af80610b9283390190565b5f6020828403121561013d575f5ffd5b81516001600160a01b0381168114610153575f5ffd5b9392505050565b60805160a05160c0516109f561019d5f395f8181609f0152818161011101526104dd01525f8181605e015261016d01525f818160c8015261020201526109f55ff3fe608060405234801561000f575f5ffd5b5060043610610055575f3560e01c806308c84e70146100595780633fd66f221461009d5780639a44ea84146100c3578063c4fa74e5146100f7578063f4cbae941461010c575b5f5ffd5b6100807f000000000000000000000000000000000000000000000000000000000000000081565b6040516001600160a01b0390911681526020015b60405180910390f35b7f0000000000000000000000000000000000000000000000000000000000000000610080565b6100ea7f000000000000000000000000000000000000000000000000000000000000000081565b604051610094919061063f565b61010a610105366004610692565b610133565b005b6100807f000000000000000000000000000000000000000000000000000000000000000081565b61014a61014536869003860186610826565b610200565b61016361015c36869003860186610826565b8383610293565b6001600160a01b037f00000000000000000000000000000000000000000000000000000000000000001663ab750e756101a96101a4368890038801886108d1565b61059f565b866101400135866040518463ffffffff1660e01b81526004016101ce939291906108f3565b5f6040518083038186803b1580156101e4575f5ffd5b505afa1580156101f6573d5f5f3e3d5ffd5b5050505050505050565b7f000000000000000000000000000000000000000000000000000000000000000060018111156102325761023261062b565b81516040015160018111156102495761024961062b565b146102905760405162461bcd60e51b8152602060048201526012602482015271496e76616c69642070726f6f66206d6f646560701b60448201526064015b60405180910390fd5b50565b816001600160a01b031683606001515f01516001600160a01b0316146102ec5760405162461bcd60e51b815260206004820152600e60248201526d24b73b30b634b210383937bb32b960911b6044820152606401610287565b806001600160e01b0319168360600151602001516001600160e01b0319161461034a5760405162461bcd60e51b815260206004820152601060248201526f24b73b30b634b21039b2b632b1ba37b960811b6044820152606401610287565b46836060015160400151146103945760405162461bcd60e51b815260206004820152601060248201526f125b9d985b1a590818da185a5b881a5960821b6044820152606401610287565b43836060015160600151106103fb5760405162461bcd60e51b815260206004820152602760248201527f496e76616c696420626c6f636b206e756d6265723a20626c6f636b2066726f6d6044820152662066757475726560c81b6064820152608401610287565b436101008460600151606001516104129190610936565b101561046c5760405162461bcd60e51b815260206004820152602360248201527f496e76616c696420626c6f636b206e756d6265723a20626c6f636b20746f6f206044820152621bdb1960ea1b6064820152608401610287565b82606001516060015140836060015160800151146104c15760405162461bcd60e51b8152602060048201526012602482015271092dcecc2d8d2c840c4d8dec6d640d0c2e6d60731b6044820152606401610287565b6020830151604051631af6c43160e01b815260048101919091527f00000000000000000000000000000000000000000000000000000000000000006001600160a01b031690631af6c43190602401602060405180830381865afa15801561052a573d5f5f3e3d5ffd5b505050506040513d601f19601f8201168201806040525081019061054e919061095b565b61059a5760405162461bcd60e51b815260206004820152601760248201527f556e737570706f727465642043616c6c477565737449640000000000000000006044820152606401610287565b505050565b60606001826040015160018111156105b9576105b961062b565b036105fa5750602081810151519151604080516001600160e01b03199092169282019290925260248082019390935281518082039093018352604401905290565b815160208084015160405161061093920161097a565b6040516020818303038152906040529050919050565b919050565b634e487b7160e01b5f52602160045260245ffd5b602081016002831061065f57634e487b7160e01b5f52602160045260245ffd5b91905290565b80356001600160a01b0381168114610626575f5ffd5b80356001600160e01b031981168114610626575f5ffd5b5f5f5f5f8486036102808112156106a7575f5ffd5b6102208112156106b5575f5ffd5b5084935061022084013592506106ce6102408501610665565b91506106dd610260860161067b565b905092959194509250565b634e487b7160e01b5f52604160045260245ffd5b6040516060810167ffffffffffffffff8111828210171561071f5761071f6106e8565b60405290565b604051610100810167ffffffffffffffff8111828210171561071f5761071f6106e8565b6040516080810167ffffffffffffffff8111828210171561071f5761071f6106e8565b60405160a0810167ffffffffffffffff8111828210171561071f5761071f6106e8565b803560028110610626575f5ffd5b5f61014082840312156107ae575f5ffd5b6107b66106fc565b90506107c18261067b565b815282603f8301126107d1575f5ffd5b6107d9610725565b806101208401858111156107eb575f5ffd5b602085015b818110156108085780358452602093840193016107f0565b508160208501526108188161078f565b604085015250505092915050565b5f81830361022081128015610839575f5ffd5b50610842610749565b61084c858561079d565b81526101408401356020820152610160840135604082015260a061017f1983011215610876575f5ffd5b61087e61076c565b915061088d6101808501610665565b825261089c6101a0850161067b565b60208301526101c084013560408301526101e08401356060808401919091526102009094013560808301529283015250919050565b5f61014082840312156108e2575f5ffd5b6108ec838361079d565b9392505050565b606081525f84518060608401528060208701608085015e5f608082850101526080601f19601f830116840101915050836020830152826040830152949350505050565b8082018082111561095557634e487b7160e01b5f52601160045260245ffd5b92915050565b5f6020828403121561096b575f5ffd5b815180151581146108ec575f5ffd5b6001600160e01b0319831681525f6004820183825b60088110156109ae57815183526020928301929091019060010161098f565b50505061010482019050939250505056fea26469706673582212208a5065e54a1406b0d800972df2a3b6f4760e262f024fea5fc356a410d2d3add064736f6c634300081c003360a060405234801561000f575f5ffd5b506040516108af3803806108af83398101604081905261002e91610040565b6001600160e01b03191660805261006e565b5f60208284031215610050575f5ffd5b81516001600160e01b031981168114610067575f5ffd5b9392505050565b6080516108166100995f395f8181605e0152818160ea015281816101f4015261025801526108165ff3fe608060405234801561000f575f5ffd5b5060043610610055575f3560e01c8063053c238d146100595780631599ead51461009e5780633a115bb1146100b357806366cf0e4b14610145578063ab750e7514610158575b5f5ffd5b6100807f000000000000000000000000000000000000000000000000000000000000000081565b6040516001600160e01b031990911681526020015b60405180910390f35b6100b16100ac3660046105b6565b61016b565b005b6101386100c13660046105ed565b60408051808201909152606081525f6020820152604080518082019091526001600160e01b03197f000000000000000000000000000000000000000000000000000000000000000016606082015260648101839052806084810160408051601f198184030181529190528152602001929092525090565b6040516100959190610604565b61013861015336600461064d565b610185565b6100b161016636600461066d565b6101b5565b61018261017882806106e7565b83602001356101d2565b50565b60408051808201909152606081525f60208201526101ae6100c16101a985856102f5565b61037f565b9392505050565b6101cc84846101c76101a986866102f5565b6101d2565b50505050565b6101df60045f8486610731565b6101e891610758565b6001600160e01b0319167f00000000000000000000000000000000000000000000000000000000000000006001600160e01b0319161461028b5761022f60045f8486610731565b61023891610758565b604051632e2ce35360e21b81526001600160e01b031991821660048201527f0000000000000000000000000000000000000000000000000000000000000000909116602482015260440160405180910390fd5b60408051602081018390520160408051601f1981840301815291905280516020909101206102bc8360048187610731565b6040516102ca929190610790565b6040518091039020146102f05760405163439cc0cd60e01b815260040160405180910390fd5b505050565b6102fd610574565b6040805160a0810182528481527fa3acc27117418996340b84e5a90f3ef4c49d22c79e44aad822ec9c313e1eb8e26020820152815180830183529091820190805f81526020015f60ff1681525081526020015f5f1b815260200161037660405180604001604052808681526020015f5f1b8152506104df565b90529392505050565b5f6002806040516103a8907172697363302e52656365697074436c61696d60701b815260120190565b602060405180830381855afa1580156103c3573d5f5f3e3d5ffd5b5050506040513d601f19601f820116820180604052508101906103e691906107b3565b606084015184516020860151608087015160408801515160189060028111156104115761041161079f565b60408a810151602090810151825191820199909952908101969096526060860194909452608085019290925260a084015263ffffffff909116901b60e01b6001600160e01b03191660c082015260f89190911b6001600160f81b03191660c4820152600160fa1b60c882015260ca015b60408051601f198184030181529082905261049b916107ca565b602060405180830381855afa1580156104b6573d5f5f3e3d5ffd5b5050506040513d601f19601f820116820180604052508101906104d991906107b3565b92915050565b5f600280604051610502906b1c9a5cd8cc0b93dd5d1c1d5d60a21b8152600c0190565b602060405180830381855afa15801561051d573d5f5f3e3d5ffd5b5050506040513d601f19601f8201168201806040525081019061054091906107b3565b83516020808601516040805192830194909452928101919091526060810191909152600160f91b6080820152608201610481565b6040518060a001604052805f81526020015f81526020016105a4604080518082019091525f808252602082015290565b81526020015f81526020015f81525090565b5f602082840312156105c6575f5ffd5b813567ffffffffffffffff8111156105dc575f5ffd5b8201604081850312156101ae575f5ffd5b5f602082840312156105fd575f5ffd5b5035919050565b602081525f82516040602084015280518060608501528060208301608086015e5f60808286010152602085015160408501526080601f19601f8301168501019250505092915050565b5f5f6040838503121561065e575f5ffd5b50508035926020909101359150565b5f5f5f5f60608587031215610680575f5ffd5b843567ffffffffffffffff811115610696575f5ffd5b8501601f810187136106a6575f5ffd5b803567ffffffffffffffff8111156106bc575f5ffd5b8760208284010111156106cd575f5ffd5b602091820198909750908601359560400135945092505050565b5f5f8335601e198436030181126106fc575f5ffd5b83018035915067ffffffffffffffff821115610716575f5ffd5b60200191503681900382131561072a575f5ffd5b9250929050565b5f5f8585111561073f575f5ffd5b8386111561074b575f5ffd5b5050820193919092039150565b80356001600160e01b03198116906004841015610789576001600160e01b0319600485900360031b81901b82161691505b5092915050565b818382375f9101908152919050565b634e487b7160e01b5f52602160045260245ffd5b5f602082840312156107c3575f5ffd5b5051919050565b5f82518060208501845e5f92019182525091905056fea2646970667358221220413640f2011045be488af933802c6358dd3230d7fa878ffa729f52b20270a20764736f6c634300081c0033","linkReferences":{}},"methodIdentifiers":{"_setTestVerifier(address)":"9b8b30c8","claim(((bytes4,bytes32[8],uint8),bytes32,uint256,(address,bytes4,uint256,uint256,bytes32)),address,(address,uint256,uint256,uint256)[])":"d03fc7e4","claimed(address)":"c884ef83","prover()":"32a8f30f","reward()":"228cb733","verifier()":"2b7ac3f3"},"id":74}