{
  "address": "0x525FCca2991766E4fb30dF2f938bEc3AfB8e68D7",
  "abi": [
    {
      "inputs": [
        {
          "internalType": "address",
          "name": "_endpoint",
          "type": "address"
        },
        {
          "internalType": "address",
          "name": "_delegate",
          "type": "address"
        },
        {
          "internalType": "uint256",
          "name": "_minScore",
          "type": "uint256"
        }
      ],
      "stateMutability": "nonpayable",
      "type": "constructor"
    },
    {
      "inputs": [],
      "name": "InvalidDelegate",
      "type": "error"
    },
    {
      "inputs": [],
      "name": "InvalidEndpointCall",
      "type": "error"
    },
    {
      "inputs": [
        {
          "internalType": "bytes",
          "name": "options",
          "type": "bytes"
        }
      ],
      "name": "InvalidOptions",
      "type": "error"
    },
    {
      "inputs": [],
      "name": "LzTokenUnavailable",
      "type": "error"
    },
    {
      "inputs": [
        {
          "internalType": "uint32",
          "name": "eid",
          "type": "uint32"
        }
      ],
      "name": "NoPeer",
      "type": "error"
    },
    {
      "inputs": [
        {
          "internalType": "uint256",
          "name": "msgValue",
          "type": "uint256"
        }
      ],
      "name": "NotEnoughNative",
      "type": "error"
    },
    {
      "inputs": [
        {
          "internalType": "address",
          "name": "addr",
          "type": "address"
        }
      ],
      "name": "OnlyEndpoint",
      "type": "error"
    },
    {
      "inputs": [
        {
          "internalType": "uint32",
          "name": "eid",
          "type": "uint32"
        },
        {
          "internalType": "bytes32",
          "name": "sender",
          "type": "bytes32"
        }
      ],
      "name": "OnlyPeer",
      "type": "error"
    },
    {
      "inputs": [
        {
          "internalType": "address",
          "name": "owner",
          "type": "address"
        }
      ],
      "name": "OwnableInvalidOwner",
      "type": "error"
    },
    {
      "inputs": [
        {
          "internalType": "address",
          "name": "account",
          "type": "address"
        }
      ],
      "name": "OwnableUnauthorizedAccount",
      "type": "error"
    },
    {
      "anonymous": false,
      "inputs": [
        {
          "components": [
            {
              "internalType": "uint32",
              "name": "eid",
              "type": "uint32"
            },
            {
              "internalType": "uint16",
              "name": "msgType",
              "type": "uint16"
            },
            {
              "internalType": "bytes",
              "name": "options",
              "type": "bytes"
            }
          ],
          "indexed": false,
          "internalType": "struct EnforcedOptionParam[]",
          "name": "_enforcedOptions",
          "type": "tuple[]"
        }
      ],
      "name": "EnforcedOptionSet",
      "type": "event"
    },
    {
      "anonymous": false,
      "inputs": [
        {
          "indexed": true,
          "internalType": "address",
          "name": "previousOwner",
          "type": "address"
        },
        {
          "indexed": true,
          "internalType": "address",
          "name": "newOwner",
          "type": "address"
        }
      ],
      "name": "OwnershipTransferred",
      "type": "event"
    },
    {
      "anonymous": false,
      "inputs": [
        {
          "indexed": false,
          "internalType": "uint32",
          "name": "eid",
          "type": "uint32"
        },
        {
          "indexed": false,
          "internalType": "bytes32",
          "name": "peer",
          "type": "bytes32"
        }
      ],
      "name": "PeerSet",
      "type": "event"
    },
    {
      "inputs": [
        {
          "components": [
            {
              "internalType": "uint32",
              "name": "srcEid",
              "type": "uint32"
            },
            {
              "internalType": "bytes32",
              "name": "sender",
              "type": "bytes32"
            },
            {
              "internalType": "uint64",
              "name": "nonce",
              "type": "uint64"
            }
          ],
          "internalType": "struct Origin",
          "name": "origin",
          "type": "tuple"
        }
      ],
      "name": "allowInitializePath",
      "outputs": [
        {
          "internalType": "bool",
          "name": "",
          "type": "bool"
        }
      ],
      "stateMutability": "view",
      "type": "function"
    },
    {
      "inputs": [
        {
          "internalType": "address",
          "name": "",
          "type": "address"
        }
      ],
      "name": "approvedLoanAmount",
      "outputs": [
        {
          "internalType": "uint256",
          "name": "",
          "type": "uint256"
        }
      ],
      "stateMutability": "view",
      "type": "function"
    },
    {
      "inputs": [
        {
          "internalType": "uint32",
          "name": "_eid",
          "type": "uint32"
        },
        {
          "internalType": "uint16",
          "name": "_msgType",
          "type": "uint16"
        },
        {
          "internalType": "bytes",
          "name": "_extraOptions",
          "type": "bytes"
        }
      ],
      "name": "combineOptions",
      "outputs": [
        {
          "internalType": "bytes",
          "name": "",
          "type": "bytes"
        }
      ],
      "stateMutability": "view",
      "type": "function"
    },
    {
      "inputs": [],
      "name": "endpoint",
      "outputs": [
        {
          "internalType": "contract ILayerZeroEndpointV2",
          "name": "",
          "type": "address"
        }
      ],
      "stateMutability": "view",
      "type": "function"
    },
    {
      "inputs": [
        {
          "internalType": "uint32",
          "name": "eid",
          "type": "uint32"
        },
        {
          "internalType": "uint16",
          "name": "msgType",
          "type": "uint16"
        }
      ],
      "name": "enforcedOptions",
      "outputs": [
        {
          "internalType": "bytes",
          "name": "enforcedOption",
          "type": "bytes"
        }
      ],
      "stateMutability": "view",
      "type": "function"
    },
    {
      "inputs": [],
      "name": "fundVault",
      "outputs": [],
      "stateMutability": "payable",
      "type": "function"
    },
    {
      "inputs": [
        {
          "internalType": "address",
          "name": "",
          "type": "address"
        }
      ],
      "name": "hasWithdrawn",
      "outputs": [
        {
          "internalType": "bool",
          "name": "",
          "type": "bool"
        }
      ],
      "stateMutability": "view",
      "type": "function"
    },
    {
      "inputs": [
        {
          "components": [
            {
              "internalType": "uint32",
              "name": "srcEid",
              "type": "uint32"
            },
            {
              "internalType": "bytes32",
              "name": "sender",
              "type": "bytes32"
            },
            {
              "internalType": "uint64",
              "name": "nonce",
              "type": "uint64"
            }
          ],
          "internalType": "struct Origin",
          "name": "",
          "type": "tuple"
        },
        {
          "internalType": "bytes",
          "name": "",
          "type": "bytes"
        },
        {
          "internalType": "address",
          "name": "_sender",
          "type": "address"
        }
      ],
      "name": "isComposeMsgSender",
      "outputs": [
        {
          "internalType": "bool",
          "name": "",
          "type": "bool"
        }
      ],
      "stateMutability": "view",
      "type": "function"
    },
    {
      "inputs": [
        {
          "components": [
            {
              "internalType": "uint32",
              "name": "srcEid",
              "type": "uint32"
            },
            {
              "internalType": "bytes32",
              "name": "sender",
              "type": "bytes32"
            },
            {
              "internalType": "uint64",
              "name": "nonce",
              "type": "uint64"
            }
          ],
          "internalType": "struct Origin",
          "name": "_origin",
          "type": "tuple"
        },
        {
          "internalType": "bytes32",
          "name": "_guid",
          "type": "bytes32"
        },
        {
          "internalType": "bytes",
          "name": "_message",
          "type": "bytes"
        },
        {
          "internalType": "address",
          "name": "_executor",
          "type": "address"
        },
        {
          "internalType": "bytes",
          "name": "_extraData",
          "type": "bytes"
        }
      ],
      "name": "lzReceive",
      "outputs": [],
      "stateMutability": "payable",
      "type": "function"
    },
    {
      "inputs": [],
      "name": "minScore",
      "outputs": [
        {
          "internalType": "uint256",
          "name": "",
          "type": "uint256"
        }
      ],
      "stateMutability": "view",
      "type": "function"
    },
    {
      "inputs": [
        {
          "internalType": "uint32",
          "name": "",
          "type": "uint32"
        },
        {
          "internalType": "bytes32",
          "name": "",
          "type": "bytes32"
        }
      ],
      "name": "nextNonce",
      "outputs": [
        {
          "internalType": "uint64",
          "name": "nonce",
          "type": "uint64"
        }
      ],
      "stateMutability": "view",
      "type": "function"
    },
    {
      "inputs": [],
      "name": "oAppVersion",
      "outputs": [
        {
          "internalType": "uint64",
          "name": "senderVersion",
          "type": "uint64"
        },
        {
          "internalType": "uint64",
          "name": "receiverVersion",
          "type": "uint64"
        }
      ],
      "stateMutability": "pure",
      "type": "function"
    },
    {
      "inputs": [],
      "name": "owner",
      "outputs": [
        {
          "internalType": "address",
          "name": "",
          "type": "address"
        }
      ],
      "stateMutability": "view",
      "type": "function"
    },
    {
      "inputs": [
        {
          "internalType": "uint32",
          "name": "eid",
          "type": "uint32"
        }
      ],
      "name": "peers",
      "outputs": [
        {
          "internalType": "bytes32",
          "name": "peer",
          "type": "bytes32"
        }
      ],
      "stateMutability": "view",
      "type": "function"
    },
    {
      "inputs": [],
      "name": "renounceOwnership",
      "outputs": [],
      "stateMutability": "nonpayable",
      "type": "function"
    },
    {
      "inputs": [
        {
          "internalType": "address",
          "name": "_delegate",
          "type": "address"
        }
      ],
      "name": "setDelegate",
      "outputs": [],
      "stateMutability": "nonpayable",
      "type": "function"
    },
    {
      "inputs": [
        {
          "components": [
            {
              "internalType": "uint32",
              "name": "eid",
              "type": "uint32"
            },
            {
              "internalType": "uint16",
              "name": "msgType",
              "type": "uint16"
            },
            {
              "internalType": "bytes",
              "name": "options",
              "type": "bytes"
            }
          ],
          "internalType": "struct EnforcedOptionParam[]",
          "name": "_enforcedOptions",
          "type": "tuple[]"
        }
      ],
      "name": "setEnforcedOptions",
      "outputs": [],
      "stateMutability": "nonpayable",
      "type": "function"
    },
    {
      "inputs": [
        {
          "internalType": "uint256",
          "name": "_score",
          "type": "uint256"
        }
      ],
      "name": "setMinScore",
      "outputs": [],
      "stateMutability": "nonpayable",
      "type": "function"
    },
    {
      "inputs": [
        {
          "internalType": "uint32",
          "name": "_eid",
          "type": "uint32"
        },
        {
          "internalType": "bytes32",
          "name": "_peer",
          "type": "bytes32"
        }
      ],
      "name": "setPeer",
      "outputs": [],
      "stateMutability": "nonpayable",
      "type": "function"
    },
    {
      "inputs": [
        {
          "internalType": "address",
          "name": "newOwner",
          "type": "address"
        }
      ],
      "name": "transferOwnership",
      "outputs": [],
      "stateMutability": "nonpayable",
      "type": "function"
    },
    {
      "inputs": [],
      "name": "withdrawAll",
      "outputs": [],
      "stateMutability": "nonpayable",
      "type": "function"
    },
    {
      "inputs": [],
      "name": "withdrawLoan",
      "outputs": [],
      "stateMutability": "nonpayable",
      "type": "function"
    },
    {
      "stateMutability": "payable",
      "type": "receive"
    }
  ],
  "transactionHash": "0xcdfe94dc8fae3ce3f63f9980285a56f1bd13462a68ec89acc8edf6da27be9cff",
  "args": [
    "0x6EDCE65403992e310A62460808c4b910D972f10f",
    "0xFbC66bD8466f7B7628fD32F8a8C07f3976c73979",
    500
  ],
  "numDeployments": 3,
  "solcInputHash": "193aafbfac586020bf64571643f1cb9d",
  "bytecode": "0x60a06040523480156200001157600080fd5b50604051620016ae380380620016ae833981016040819052620000349162000183565b82828181806001600160a01b0381166200006857604051631e4fbdf760e01b81526000600482015260240160405180910390fd5b620000738162000116565b506001600160a01b038083166080528116620000a257604051632d618d8160e21b815260040160405180910390fd5b60805160405163ca5eb5e160e01b81526001600160a01b0383811660048301529091169063ca5eb5e190602401600060405180830381600087803b158015620000ea57600080fd5b505af1158015620000ff573d6000803e3d6000fd5b50505060039590955550620001c495505050505050565b600080546001600160a01b038381166001600160a01b0319831681178455604051919092169283917f8be0079c531659141344cd1fd0a4f28419497f9722a3daafe3b4186f6b6457e09190a35050565b80516001600160a01b03811681146200017e57600080fd5b919050565b6000806000606084860312156200019957600080fd5b620001a48462000166565b9250620001b46020850162000166565b9150604084015190509250925092565b6080516114c0620001ee6000396000818161020401528181610453015261096701526114c06000f3fe6080604052600436106101395760003560e01c80638da5cb5b116100ab578063c4c77e251161006f578063c4c77e25146103af578063ca5eb5e1146103c4578063e81482ed146103e4578063f2fde38b14610411578063f7800e6914610158578063ff7bd03d1461043157600080fd5b80638da5cb5b14610304578063b98bd07014610322578063bb0b6a5314610342578063bc70b3541461036f578063c4c38e481461038f57600080fd5b80635e280f11116100fd5780635e280f11146101f25780635e2c19db1461023e578063715018a61461027e5780637d25a05e1461029357806382413eac146102cf578063853828b6146102ef57600080fd5b806313137d651461014557806313c2bedc1461015a57806317442b70146101835780633400288b146101a55780635535d461146101c557600080fd5b3661014057005b600080fd5b610158610153366004610d33565b610451565b005b34801561016657600080fd5b5061017060035481565b6040519081526020015b60405180910390f35b34801561018f57600080fd5b506040805160018152600260208201520161017a565b3480156101b157600080fd5b506101586101c0366004610dec565b610511565b3480156101d157600080fd5b506101e56101e0366004610e28565b610527565b60405161017a9190610eab565b3480156101fe57600080fd5b506102267f000000000000000000000000000000000000000000000000000000000000000081565b6040516001600160a01b03909116815260200161017a565b34801561024a57600080fd5b5061026e610259366004610ec5565b60046020526000908152604090205460ff1681565b604051901515815260200161017a565b34801561028a57600080fd5b506101586105cc565b34801561029f57600080fd5b506102b66102ae366004610dec565b600092915050565b60405167ffffffffffffffff909116815260200161017a565b3480156102db57600080fd5b5061026e6102ea366004610ee2565b6105e0565b3480156102fb57600080fd5b506101586105f5565b34801561031057600080fd5b506000546001600160a01b0316610226565b34801561032e57600080fd5b5061015861033d366004610f49565b61063a565b34801561034e57600080fd5b5061017061035d366004610fbe565b60016020526000908152604090205481565b34801561037b57600080fd5b506101e561038a366004610fd9565b610654565b34801561039b57600080fd5b506101586103aa36600461103a565b6107fc565b3480156103bb57600080fd5b50610158610809565b3480156103d057600080fd5b506101586103df366004610ec5565b610940565b3480156103f057600080fd5b506101706103ff366004610ec5565b60056020526000908152604090205481565b34801561041d57600080fd5b5061015861042c366004610ec5565b6109c6565b34801561043d57600080fd5b5061026e61044c366004611053565b610a01565b7f00000000000000000000000000000000000000000000000000000000000000006001600160a01b031633146104a1576040516391ac5e4f60e01b81523360048201526024015b60405180910390fd5b602087018035906104bb906104b6908a610fbe565b610a37565b146104f9576104cd6020880188610fbe565b60405163309afaf360e21b815263ffffffff909116600482015260208801356024820152604401610498565b61050887878787878787610a79565b50505050505050565b610519610aad565b6105238282610ada565b5050565b60026020908152600092835260408084209091529082529020805461054b9061106f565b80601f01602080910402602001604051908101604052809291908181526020018280546105779061106f565b80156105c45780601f10610599576101008083540402835291602001916105c4565b820191906000526020600020905b8154815290600101906020018083116105a757829003601f168201915b505050505081565b6105d4610aad565b6105de6000610b2f565b565b6001600160a01b03811630145b949350505050565b6105fd610aad565b600080546040516001600160a01b03909116914780156108fc02929091818181858888f19350505050158015610637573d6000803e3d6000fd5b50565b610642610aad565b61052361064f8284611113565b610b7f565b63ffffffff8416600090815260026020908152604080832061ffff871684529091528120805460609291906106889061106f565b80601f01602080910402602001604051908101604052809291908181526020018280546106b49061106f565b80156107015780601f106106d657610100808354040283529160200191610701565b820191906000526020600020905b8154815290600101906020018083116106e457829003601f168201915b5050505050905080516000036107515783838080601f0160208091040260200160405190810160405280939291908181526020018383808284376000920191909152509294506105ed9350505050565b60008390036107615790506105ed565b600283106107df576107a884848080601f016020809104026020016040519081016040528093929190818152602001838380828437600092019190915250610c9192505050565b806107b68460028188611239565b6040516020016107c893929190611263565b6040516020818303038152906040529150506105ed565b8383604051639a6d49cd60e01b815260040161049892919061128b565b610804610aad565b600355565b33600090815260056020526040902054806108595760405162461bcd60e51b815260206004820152601060248201526f27379030b8383937bb32b2103637b0b760811b6044820152606401610498565b3360009081526004602052604090205460ff16156108ad5760405162461bcd60e51b815260206004820152601160248201527020b63932b0b23c903bb4ba34323930bbb760791b6044820152606401610498565b804710156108fd5760405162461bcd60e51b815260206004820152601d60248201527f496e73756666696369656e7420636f6e74726163742062616c616e63650000006044820152606401610498565b33600081815260046020526040808220805460ff191660011790555183156108fc0291849190818181858888f19350505050158015610523573d6000803e3d6000fd5b610948610aad565b60405163ca5eb5e160e01b81526001600160a01b0382811660048301527f0000000000000000000000000000000000000000000000000000000000000000169063ca5eb5e190602401600060405180830381600087803b1580156109ab57600080fd5b505af11580156109bf573d6000803e3d6000fd5b5050505050565b6109ce610aad565b6001600160a01b0381166109f857604051631e4fbdf760e01b815260006004820152602401610498565b61063781610b2f565b6000602082018035906001908390610a199086610fbe565b63ffffffff1681526020810191909152604001600020541492915050565b63ffffffff811660009081526001602052604081205480610a735760405163f6ff4fb760e01b815263ffffffff84166004820152602401610498565b92915050565b600080610a88868801886112ba565b6001600160a01b03909116600090815260056020526040902055505050505050505050565b6000546001600160a01b031633146105de5760405163118cdaa760e01b8152336004820152602401610498565b63ffffffff8216600081815260016020908152604091829020849055815192835282018390527f238399d427b947898edb290f5ff0f9109849b1c3ba196a42e35f00c50a54b98b910160405180910390a15050565b600080546001600160a01b038381166001600160a01b0319831681178455604051919092169283917f8be0079c531659141344cd1fd0a4f28419497f9722a3daafe3b4186f6b6457e09190a35050565b60005b8151811015610c5657610bb1828281518110610ba057610ba06112d8565b602002602001015160400151610c91565b818181518110610bc357610bc36112d8565b60200260200101516040015160026000848481518110610be557610be56112d8565b60200260200101516000015163ffffffff1663ffffffff1681526020019081526020016000206000848481518110610c1f57610c1f6112d8565b60200260200101516020015161ffff1661ffff1681526020019081526020016000209081610c4d919061133f565b50600101610b82565b507fbe4864a8e820971c0247f5992e2da559595f7bf076a21cb5928d443d2a13b67481604051610c8691906113ff565b60405180910390a150565b600281015161ffff81166003146105235781604051639a6d49cd60e01b81526004016104989190610eab565b600060608284031215610ccf57600080fd5b50919050565b60008083601f840112610ce757600080fd5b50813567ffffffffffffffff811115610cff57600080fd5b602083019150836020828501011115610d1757600080fd5b9250929050565b6001600160a01b038116811461063757600080fd5b600080600080600080600060e0888a031215610d4e57600080fd5b610d588989610cbd565b965060608801359550608088013567ffffffffffffffff80821115610d7c57600080fd5b610d888b838c01610cd5565b909750955060a08a01359150610d9d82610d1e565b90935060c08901359080821115610db357600080fd5b50610dc08a828b01610cd5565b989b979a50959850939692959293505050565b803563ffffffff81168114610de757600080fd5b919050565b60008060408385031215610dff57600080fd5b610e0883610dd3565b946020939093013593505050565b803561ffff81168114610de757600080fd5b60008060408385031215610e3b57600080fd5b610e4483610dd3565b9150610e5260208401610e16565b90509250929050565b60005b83811015610e76578181015183820152602001610e5e565b50506000910152565b60008151808452610e97816020860160208601610e5b565b601f01601f19169290920160200192915050565b602081526000610ebe6020830184610e7f565b9392505050565b600060208284031215610ed757600080fd5b8135610ebe81610d1e565b60008060008060a08587031215610ef857600080fd5b610f028686610cbd565b9350606085013567ffffffffffffffff811115610f1e57600080fd5b610f2a87828801610cd5565b9094509250506080850135610f3e81610d1e565b939692955090935050565b60008060208385031215610f5c57600080fd5b823567ffffffffffffffff80821115610f7457600080fd5b818501915085601f830112610f8857600080fd5b813581811115610f9757600080fd5b8660208260051b8501011115610fac57600080fd5b60209290920196919550909350505050565b600060208284031215610fd057600080fd5b610ebe82610dd3565b60008060008060608587031215610fef57600080fd5b610ff885610dd3565b935061100660208601610e16565b9250604085013567ffffffffffffffff81111561102257600080fd5b61102e87828801610cd5565b95989497509550505050565b60006020828403121561104c57600080fd5b5035919050565b60006060828403121561106557600080fd5b610ebe8383610cbd565b600181811c9082168061108357607f821691505b602082108103610ccf57634e487b7160e01b600052602260045260246000fd5b634e487b7160e01b600052604160045260246000fd5b6040516060810167ffffffffffffffff811182821017156110dc576110dc6110a3565b60405290565b604051601f8201601f1916810167ffffffffffffffff8111828210171561110b5761110b6110a3565b604052919050565b600067ffffffffffffffff8084111561112e5761112e6110a3565b8360051b602061113f8183016110e2565b86815291850191818101903684111561115757600080fd5b865b8481101561122d578035868111156111715760008081fd5b880160603682900312156111855760008081fd5b61118d6110b9565b61119682610dd3565b81526111a3868301610e16565b86820152604080830135898111156111bb5760008081fd5b9290920191601f36818501126111d15760008081fd5b83358a8111156111e3576111e36110a3565b6111f4818301601f19168a016110e2565b9150808252368982870101111561120b5760008081fd5b808986018a840137600090820189015290820152845250918301918301611159565b50979650505050505050565b6000808585111561124957600080fd5b8386111561125657600080fd5b5050820193919092039150565b60008451611275818460208901610e5b565b8201838582376000930192835250909392505050565b60208152816020820152818360408301376000818301604090810191909152601f909201601f19160101919050565b600080604083850312156112cd57600080fd5b8235610e0881610d1e565b634e487b7160e01b600052603260045260246000fd5b601f82111561133a576000816000526020600020601f850160051c810160208610156113175750805b601f850160051c820191505b8181101561133657828155600101611323565b5050505b505050565b815167ffffffffffffffff811115611359576113596110a3565b61136d81611367845461106f565b846112ee565b602080601f8311600181146113a2576000841561138a5750858301515b600019600386901b1c1916600185901b178555611336565b600085815260208120601f198616915b828110156113d1578886015182559484019460019091019084016113b2565b50858210156113ef5787850151600019600388901b60f8161c191681555b5050505050600190811b01905550565b600060208083018184528085518083526040925060408601915060408160051b87010184880160005b8381101561147c57888303603f190185528151805163ffffffff1684528781015161ffff1688850152860151606087850181905261146881860183610e7f565b968901969450505090860190600101611428565b50909897505050505050505056fea26469706673582212204a3ffeec2bb751b713f454f8d8ac057add06e1e543a2c8f694ba144a8a8550bb64736f6c63430008160033",
  "devdoc": {
    "errors": {
      "OwnableInvalidOwner(address)": [
        {
          "details": "The owner is not a valid owner account. (eg. `address(0)`)"
        }
      ],
      "OwnableUnauthorizedAccount(address)": [
        {
          "details": "The caller account is not authorized to perform an operation."
        }
      ]
    },
    "kind": "dev",
    "methods": {
      "allowInitializePath((uint32,bytes32,uint64))": {
        "details": "This indicates to the endpoint that the OApp has enabled msgs for this particular path to be received.This defaults to assuming if a peer has been set, its initialized. Can be overridden by the OApp if there is other logic to determine this.",
        "params": {
          "origin": "The origin information containing the source endpoint and sender address."
        },
        "returns": {
          "_0": "Whether the path has been initialized."
        }
      },
      "combineOptions(uint32,uint16,bytes)": {
        "details": "If there is an enforced lzReceive option: - {gasLimit: 200k, msg.value: 1 ether} AND a caller supplies a lzReceive option: {gasLimit: 100k, msg.value: 0.5 ether} - The resulting options will be {gasLimit: 300k, msg.value: 1.5 ether} when the message is executed on the remote lzReceive() function.This presence of duplicated options is handled off-chain in the verifier/executor.",
        "params": {
          "_eid": "The endpoint ID.",
          "_extraOptions": "Additional options passed by the caller.",
          "_msgType": "The OAPP message type."
        },
        "returns": {
          "_0": "options The combination of caller specified options AND enforced options."
        }
      },
      "isComposeMsgSender((uint32,bytes32,uint64),bytes,address)": {
        "details": "_origin The origin information containing the source endpoint and sender address.  - srcEid: The source chain endpoint ID.  - sender: The sender address on the src chain.  - nonce: The nonce of the message._message The lzReceive payload.Applications can optionally choose to implement separate composeMsg senders that are NOT the bridging layer.The default sender IS the OAppReceiver implementer.",
        "params": {
          "_sender": "The sender address."
        },
        "returns": {
          "_0": "isSender Is a valid sender."
        }
      },
      "lzReceive((uint32,bytes32,uint64),bytes32,bytes,address,bytes)": {
        "details": "Entry point for receiving messages or packets from the endpoint.Entry point for receiving msg/packet from the LayerZero endpoint.",
        "params": {
          "_executor": "The address of the executor for the received message.",
          "_extraData": "Additional arbitrary data provided by the corresponding executor.",
          "_guid": "The unique identifier for the received LayerZero message.",
          "_message": "The payload of the received message.",
          "_origin": "The origin information containing the source endpoint and sender address.  - srcEid: The source chain endpoint ID.  - sender: The sender address on the src chain.  - nonce: The nonce of the message."
        }
      },
      "nextNonce(uint32,bytes32)": {
        "details": "_srcEid The source endpoint ID._sender The sender address.The path nonce starts from 1. If 0 is returned it means that there is NO nonce ordered enforcement.Is required by the off-chain executor to determine the OApp expects msg execution is ordered.This is also enforced by the OApp.By default this is NOT enabled. ie. nextNonce is hardcoded to return 0.",
        "returns": {
          "nonce": "The next nonce."
        }
      },
      "oAppVersion()": {
        "returns": {
          "receiverVersion": "The version of the OAppReceiver.sol implementation.",
          "senderVersion": "The version of the OAppSender.sol implementation."
        }
      },
      "owner()": {
        "details": "Returns the address of the current owner."
      },
      "renounceOwnership()": {
        "details": "Leaves the contract without owner. It will not be possible to call `onlyOwner` functions. Can only be called by the current owner. NOTE: Renouncing ownership will leave the contract without an owner, thereby disabling any functionality that is only available to the owner."
      },
      "setDelegate(address)": {
        "details": "Only the owner/admin of the OApp can call this function.Provides the ability for a delegate to set configs, on behalf of the OApp, directly on the Endpoint contract.",
        "params": {
          "_delegate": "The address of the delegate to be set."
        }
      },
      "setEnforcedOptions((uint32,uint16,bytes)[])": {
        "details": "Sets the enforced options for specific endpoint and message type combinations.Only the owner/admin of the OApp can call this function.Provides a way for the OApp to enforce things like paying for PreCrime, AND/OR minimum dst lzReceive gas amounts etc.These enforced options can vary as the potential options/execution on the remote may differ as per the msgType. eg. Amount of lzReceive() gas necessary to deliver a lzCompose() message adds overhead you dont want to pay if you are only making a standard LayerZero message ie. lzReceive() WITHOUT sendCompose().",
        "params": {
          "_enforcedOptions": "An array of EnforcedOptionParam structures specifying enforced options."
        }
      },
      "setPeer(uint32,bytes32)": {
        "details": "Only the owner/admin of the OApp can call this function.Indicates that the peer is trusted to send LayerZero messages to this OApp.Set this to bytes32(0) to remove the peer address.Peer is a bytes32 to accommodate non-evm chains.",
        "params": {
          "_eid": "The endpoint ID.",
          "_peer": "The address of the peer to be associated with the corresponding endpoint."
        }
      },
      "transferOwnership(address)": {
        "details": "Transfers ownership of the contract to a new account (`newOwner`). Can only be called by the current owner."
      }
    },
    "version": 1
  },
  "userdoc": {
    "kind": "user",
    "methods": {
      "allowInitializePath((uint32,bytes32,uint64))": {
        "notice": "Checks if the path initialization is allowed based on the provided origin."
      },
      "combineOptions(uint32,uint16,bytes)": {
        "notice": "Combines options for a given endpoint and message type."
      },
      "endpoint()": {
        "notice": "Retrieves the LayerZero endpoint associated with the OApp."
      },
      "isComposeMsgSender((uint32,bytes32,uint64),bytes,address)": {
        "notice": "Indicates whether an address is an approved composeMsg sender to the Endpoint."
      },
      "nextNonce(uint32,bytes32)": {
        "notice": "Retrieves the next nonce for a given source endpoint and sender address."
      },
      "oAppVersion()": {
        "notice": "Retrieves the OApp version information."
      },
      "peers(uint32)": {
        "notice": "Retrieves the peer (OApp) associated with a corresponding endpoint."
      },
      "setDelegate(address)": {
        "notice": "Sets the delegate address for the OApp."
      },
      "setPeer(uint32,bytes32)": {
        "notice": "Sets the peer address (OApp instance) for a corresponding endpoint."
      }
    },
    "version": 1
  },
  "storageLayout": {
    "storage": [
      {
        "astId": 1533,
        "contract": "contracts/ZkLending.sol:ZkLending",
        "label": "_owner",
        "offset": 0,
        "slot": "0",
        "type": "t_address"
      },
      {
        "astId": 785,
        "contract": "contracts/ZkLending.sol:ZkLending",
        "label": "peers",
        "offset": 0,
        "slot": "1",
        "type": "t_mapping(t_uint32,t_bytes32)"
      },
      {
        "astId": 1381,
        "contract": "contracts/ZkLending.sol:ZkLending",
        "label": "enforcedOptions",
        "offset": 0,
        "slot": "2",
        "type": "t_mapping(t_uint32,t_mapping(t_uint16,t_bytes_storage))"
      },
      {
        "astId": 2363,
        "contract": "contracts/ZkLending.sol:ZkLending",
        "label": "minScore",
        "offset": 0,
        "slot": "3",
        "type": "t_uint256"
      },
      {
        "astId": 2367,
        "contract": "contracts/ZkLending.sol:ZkLending",
        "label": "hasWithdrawn",
        "offset": 0,
        "slot": "4",
        "type": "t_mapping(t_address,t_bool)"
      },
      {
        "astId": 2371,
        "contract": "contracts/ZkLending.sol:ZkLending",
        "label": "approvedLoanAmount",
        "offset": 0,
        "slot": "5",
        "type": "t_mapping(t_address,t_uint256)"
      }
    ],
    "types": {
      "t_address": {
        "encoding": "inplace",
        "label": "address",
        "numberOfBytes": "20"
      },
      "t_bool": {
        "encoding": "inplace",
        "label": "bool",
        "numberOfBytes": "1"
      },
      "t_bytes32": {
        "encoding": "inplace",
        "label": "bytes32",
        "numberOfBytes": "32"
      },
      "t_bytes_storage": {
        "encoding": "bytes",
        "label": "bytes",
        "numberOfBytes": "32"
      },
      "t_mapping(t_address,t_bool)": {
        "encoding": "mapping",
        "key": "t_address",
        "label": "mapping(address => bool)",
        "numberOfBytes": "32",
        "value": "t_bool"
      },
      "t_mapping(t_address,t_uint256)": {
        "encoding": "mapping",
        "key": "t_address",
        "label": "mapping(address => uint256)",
        "numberOfBytes": "32",
        "value": "t_uint256"
      },
      "t_mapping(t_uint16,t_bytes_storage)": {
        "encoding": "mapping",
        "key": "t_uint16",
        "label": "mapping(uint16 => bytes)",
        "numberOfBytes": "32",
        "value": "t_bytes_storage"
      },
      "t_mapping(t_uint32,t_bytes32)": {
        "encoding": "mapping",
        "key": "t_uint32",
        "label": "mapping(uint32 => bytes32)",
        "numberOfBytes": "32",
        "value": "t_bytes32"
      },
      "t_mapping(t_uint32,t_mapping(t_uint16,t_bytes_storage))": {
        "encoding": "mapping",
        "key": "t_uint32",
        "label": "mapping(uint32 => mapping(uint16 => bytes))",
        "numberOfBytes": "32",
        "value": "t_mapping(t_uint16,t_bytes_storage)"
      },
      "t_uint16": {
        "encoding": "inplace",
        "label": "uint16",
        "numberOfBytes": "2"
      },
      "t_uint256": {
        "encoding": "inplace",
        "label": "uint256",
        "numberOfBytes": "32"
      },
      "t_uint32": {
        "encoding": "inplace",
        "label": "uint32",
        "numberOfBytes": "4"
      }
    }
  }
}