{
  "address": "0x1b8499728383c423576af4a3e019982D0eAC8Ea0",
  "abi": [
    {
      "inputs": [
        {
          "internalType": "address",
          "name": "_endpoint",
          "type": "address"
        },
        {
          "internalType": "address",
          "name": "_delegate",
          "type": "address"
        },
        {
          "internalType": "address",
          "name": "_verifier",
          "type": "address"
        }
      ],
      "stateMutability": "nonpayable",
      "type": "constructor"
    },
    {
      "inputs": [],
      "name": "InvalidDelegate",
      "type": "error"
    },
    {
      "inputs": [],
      "name": "InvalidEndpointCall",
      "type": "error"
    },
    {
      "inputs": [
        {
          "internalType": "bytes",
          "name": "options",
          "type": "bytes"
        }
      ],
      "name": "InvalidOptions",
      "type": "error"
    },
    {
      "inputs": [],
      "name": "LzTokenUnavailable",
      "type": "error"
    },
    {
      "inputs": [
        {
          "internalType": "uint32",
          "name": "eid",
          "type": "uint32"
        }
      ],
      "name": "NoPeer",
      "type": "error"
    },
    {
      "inputs": [
        {
          "internalType": "uint256",
          "name": "msgValue",
          "type": "uint256"
        }
      ],
      "name": "NotEnoughNative",
      "type": "error"
    },
    {
      "inputs": [
        {
          "internalType": "address",
          "name": "addr",
          "type": "address"
        }
      ],
      "name": "OnlyEndpoint",
      "type": "error"
    },
    {
      "inputs": [
        {
          "internalType": "uint32",
          "name": "eid",
          "type": "uint32"
        },
        {
          "internalType": "bytes32",
          "name": "sender",
          "type": "bytes32"
        }
      ],
      "name": "OnlyPeer",
      "type": "error"
    },
    {
      "inputs": [
        {
          "internalType": "address",
          "name": "owner",
          "type": "address"
        }
      ],
      "name": "OwnableInvalidOwner",
      "type": "error"
    },
    {
      "inputs": [
        {
          "internalType": "address",
          "name": "account",
          "type": "address"
        }
      ],
      "name": "OwnableUnauthorizedAccount",
      "type": "error"
    },
    {
      "inputs": [
        {
          "internalType": "address",
          "name": "token",
          "type": "address"
        }
      ],
      "name": "SafeERC20FailedOperation",
      "type": "error"
    },
    {
      "anonymous": false,
      "inputs": [
        {
          "components": [
            {
              "internalType": "uint32",
              "name": "eid",
              "type": "uint32"
            },
            {
              "internalType": "uint16",
              "name": "msgType",
              "type": "uint16"
            },
            {
              "internalType": "bytes",
              "name": "options",
              "type": "bytes"
            }
          ],
          "indexed": false,
          "internalType": "struct EnforcedOptionParam[]",
          "name": "_enforcedOptions",
          "type": "tuple[]"
        }
      ],
      "name": "EnforcedOptionSet",
      "type": "event"
    },
    {
      "anonymous": false,
      "inputs": [
        {
          "indexed": true,
          "internalType": "address",
          "name": "previousOwner",
          "type": "address"
        },
        {
          "indexed": true,
          "internalType": "address",
          "name": "newOwner",
          "type": "address"
        }
      ],
      "name": "OwnershipTransferred",
      "type": "event"
    },
    {
      "anonymous": false,
      "inputs": [
        {
          "indexed": false,
          "internalType": "uint32",
          "name": "eid",
          "type": "uint32"
        },
        {
          "indexed": false,
          "internalType": "bytes32",
          "name": "peer",
          "type": "bytes32"
        }
      ],
      "name": "PeerSet",
      "type": "event"
    },
    {
      "anonymous": false,
      "inputs": [
        {
          "indexed": true,
          "internalType": "address",
          "name": "user",
          "type": "address"
        },
        {
          "indexed": false,
          "internalType": "uint256",
          "name": "score",
          "type": "uint256"
        },
        {
          "indexed": false,
          "internalType": "uint256",
          "name": "probability",
          "type": "uint256"
        },
        {
          "indexed": false,
          "internalType": "uint256",
          "name": "maxLoan",
          "type": "uint256"
        },
        {
          "indexed": false,
          "internalType": "uint32",
          "name": "dstEid",
          "type": "uint32"
        }
      ],
      "name": "ScoreSent",
      "type": "event"
    },
    {
      "anonymous": false,
      "inputs": [
        {
          "indexed": true,
          "internalType": "address",
          "name": "claimer",
          "type": "address"
        },
        {
          "indexed": false,
          "internalType": "uint256",
          "name": "score",
          "type": "uint256"
        },
        {
          "indexed": false,
          "internalType": "uint256",
          "name": "probability",
          "type": "uint256"
        },
        {
          "indexed": false,
          "internalType": "uint256",
          "name": "maxLoan",
          "type": "uint256"
        }
      ],
      "name": "ScoreSubmitted",
      "type": "event"
    },
    {
      "inputs": [
        {
          "components": [
            {
              "internalType": "uint32",
              "name": "srcEid",
              "type": "uint32"
            },
            {
              "internalType": "bytes32",
              "name": "sender",
              "type": "bytes32"
            },
            {
              "internalType": "uint64",
              "name": "nonce",
              "type": "uint64"
            }
          ],
          "internalType": "struct Origin",
          "name": "origin",
          "type": "tuple"
        }
      ],
      "name": "allowInitializePath",
      "outputs": [
        {
          "internalType": "bool",
          "name": "",
          "type": "bool"
        }
      ],
      "stateMutability": "view",
      "type": "function"
    },
    {
      "inputs": [
        {
          "internalType": "uint32",
          "name": "_eid",
          "type": "uint32"
        },
        {
          "internalType": "uint16",
          "name": "_msgType",
          "type": "uint16"
        },
        {
          "internalType": "bytes",
          "name": "_extraOptions",
          "type": "bytes"
        }
      ],
      "name": "combineOptions",
      "outputs": [
        {
          "internalType": "bytes",
          "name": "",
          "type": "bytes"
        }
      ],
      "stateMutability": "view",
      "type": "function"
    },
    {
      "inputs": [],
      "name": "endpoint",
      "outputs": [
        {
          "internalType": "contract ILayerZeroEndpointV2",
          "name": "",
          "type": "address"
        }
      ],
      "stateMutability": "view",
      "type": "function"
    },
    {
      "inputs": [
        {
          "internalType": "uint32",
          "name": "eid",
          "type": "uint32"
        },
        {
          "internalType": "uint16",
          "name": "msgType",
          "type": "uint16"
        }
      ],
      "name": "enforcedOptions",
      "outputs": [
        {
          "internalType": "bytes",
          "name": "enforcedOption",
          "type": "bytes"
        }
      ],
      "stateMutability": "view",
      "type": "function"
    },
    {
      "inputs": [
        {
          "internalType": "address",
          "name": "user",
          "type": "address"
        }
      ],
      "name": "getScoreDetails",
      "outputs": [
        {
          "internalType": "uint256",
          "name": "score",
          "type": "uint256"
        },
        {
          "internalType": "uint256",
          "name": "probability",
          "type": "uint256"
        },
        {
          "internalType": "uint256",
          "name": "maxLoan",
          "type": "uint256"
        }
      ],
      "stateMutability": "view",
      "type": "function"
    },
    {
      "inputs": [
        {
          "components": [
            {
              "internalType": "uint32",
              "name": "srcEid",
              "type": "uint32"
            },
            {
              "internalType": "bytes32",
              "name": "sender",
              "type": "bytes32"
            },
            {
              "internalType": "uint64",
              "name": "nonce",
              "type": "uint64"
            }
          ],
          "internalType": "struct Origin",
          "name": "",
          "type": "tuple"
        },
        {
          "internalType": "bytes",
          "name": "",
          "type": "bytes"
        },
        {
          "internalType": "address",
          "name": "_sender",
          "type": "address"
        }
      ],
      "name": "isComposeMsgSender",
      "outputs": [
        {
          "internalType": "bool",
          "name": "",
          "type": "bool"
        }
      ],
      "stateMutability": "view",
      "type": "function"
    },
    {
      "inputs": [
        {
          "components": [
            {
              "internalType": "uint32",
              "name": "srcEid",
              "type": "uint32"
            },
            {
              "internalType": "bytes32",
              "name": "sender",
              "type": "bytes32"
            },
            {
              "internalType": "uint64",
              "name": "nonce",
              "type": "uint64"
            }
          ],
          "internalType": "struct Origin",
          "name": "_origin",
          "type": "tuple"
        },
        {
          "internalType": "bytes32",
          "name": "_guid",
          "type": "bytes32"
        },
        {
          "internalType": "bytes",
          "name": "_message",
          "type": "bytes"
        },
        {
          "internalType": "address",
          "name": "_executor",
          "type": "address"
        },
        {
          "internalType": "bytes",
          "name": "_extraData",
          "type": "bytes"
        }
      ],
      "name": "lzReceive",
      "outputs": [],
      "stateMutability": "payable",
      "type": "function"
    },
    {
      "inputs": [
        {
          "internalType": "uint32",
          "name": "",
          "type": "uint32"
        },
        {
          "internalType": "bytes32",
          "name": "",
          "type": "bytes32"
        }
      ],
      "name": "nextNonce",
      "outputs": [
        {
          "internalType": "uint64",
          "name": "nonce",
          "type": "uint64"
        }
      ],
      "stateMutability": "view",
      "type": "function"
    },
    {
      "inputs": [],
      "name": "oAppVersion",
      "outputs": [
        {
          "internalType": "uint64",
          "name": "senderVersion",
          "type": "uint64"
        },
        {
          "internalType": "uint64",
          "name": "receiverVersion",
          "type": "uint64"
        }
      ],
      "stateMutability": "pure",
      "type": "function"
    },
    {
      "inputs": [],
      "name": "owner",
      "outputs": [
        {
          "internalType": "address",
          "name": "",
          "type": "address"
        }
      ],
      "stateMutability": "view",
      "type": "function"
    },
    {
      "inputs": [
        {
          "internalType": "uint32",
          "name": "eid",
          "type": "uint32"
        }
      ],
      "name": "peers",
      "outputs": [
        {
          "internalType": "bytes32",
          "name": "peer",
          "type": "bytes32"
        }
      ],
      "stateMutability": "view",
      "type": "function"
    },
    {
      "inputs": [],
      "name": "renounceOwnership",
      "outputs": [],
      "stateMutability": "nonpayable",
      "type": "function"
    },
    {
      "inputs": [
        {
          "internalType": "address",
          "name": "_delegate",
          "type": "address"
        }
      ],
      "name": "setDelegate",
      "outputs": [],
      "stateMutability": "nonpayable",
      "type": "function"
    },
    {
      "inputs": [
        {
          "components": [
            {
              "internalType": "uint32",
              "name": "eid",
              "type": "uint32"
            },
            {
              "internalType": "uint16",
              "name": "msgType",
              "type": "uint16"
            },
            {
              "internalType": "bytes",
              "name": "options",
              "type": "bytes"
            }
          ],
          "internalType": "struct EnforcedOptionParam[]",
          "name": "_enforcedOptions",
          "type": "tuple[]"
        }
      ],
      "name": "setEnforcedOptions",
      "outputs": [],
      "stateMutability": "nonpayable",
      "type": "function"
    },
    {
      "inputs": [
        {
          "internalType": "uint32",
          "name": "_eid",
          "type": "uint32"
        },
        {
          "internalType": "bytes32",
          "name": "_peer",
          "type": "bytes32"
        }
      ],
      "name": "setPeer",
      "outputs": [],
      "stateMutability": "nonpayable",
      "type": "function"
    },
    {
      "inputs": [
        {
          "internalType": "uint256",
          "name": "score",
          "type": "uint256"
        },
        {
          "internalType": "uint256",
          "name": "probability",
          "type": "uint256"
        },
        {
          "internalType": "uint256",
          "name": "maxLoan",
          "type": "uint256"
        },
        {
          "components": [
            {
              "components": [
                {
                  "internalType": "bytes4",
                  "name": "verifierSelector",
                  "type": "bytes4"
                },
                {
                  "internalType": "bytes32[8]",
                  "name": "seal",
                  "type": "bytes32[8]"
                },
                {
                  "internalType": "enum ProofMode",
                  "name": "mode",
                  "type": "uint8"
                }
              ],
              "internalType": "struct Seal",
              "name": "seal",
              "type": "tuple"
            },
            {
              "internalType": "bytes32",
              "name": "callGuestId",
              "type": "bytes32"
            },
            {
              "internalType": "uint256",
              "name": "length",
              "type": "uint256"
            },
            {
              "components": [
                {
                  "internalType": "address",
                  "name": "proverContractAddress",
                  "type": "address"
                },
                {
                  "internalType": "bytes4",
                  "name": "functionSelector",
                  "type": "bytes4"
                },
                {
                  "internalType": "uint64",
                  "name": "settleChainId",
                  "type": "uint64"
                },
                {
                  "internalType": "uint64",
                  "name": "settleBlockNumber",
                  "type": "uint64"
                },
                {
                  "internalType": "bytes32",
                  "name": "settleBlockHash",
                  "type": "bytes32"
                }
              ],
              "internalType": "struct CallAssumptions",
              "name": "callAssumptions",
              "type": "tuple"
            }
          ],
          "internalType": "struct Proof",
          "name": "proof",
          "type": "tuple"
        },
        {
          "internalType": "address",
          "name": "claimer",
          "type": "address"
        },
        {
          "internalType": "uint256",
          "name": "average",
          "type": "uint256"
        },
        {
          "internalType": "uint32",
          "name": "dstEid",
          "type": "uint32"
        },
        {
          "internalType": "bytes",
          "name": "options",
          "type": "bytes"
        }
      ],
      "name": "submitScore",
      "outputs": [
        {
          "components": [
            {
              "internalType": "bytes32",
              "name": "guid",
              "type": "bytes32"
            },
            {
              "internalType": "uint64",
              "name": "nonce",
              "type": "uint64"
            },
            {
              "components": [
                {
                  "internalType": "uint256",
                  "name": "nativeFee",
                  "type": "uint256"
                },
                {
                  "internalType": "uint256",
                  "name": "lzTokenFee",
                  "type": "uint256"
                }
              ],
              "internalType": "struct MessagingFee",
              "name": "fee",
              "type": "tuple"
            }
          ],
          "internalType": "struct MessagingReceipt",
          "name": "receipt",
          "type": "tuple"
        }
      ],
      "stateMutability": "payable",
      "type": "function"
    },
    {
      "inputs": [
        {
          "internalType": "address",
          "name": "newOwner",
          "type": "address"
        }
      ],
      "name": "transferOwnership",
      "outputs": [],
      "stateMutability": "nonpayable",
      "type": "function"
    },
    {
      "inputs": [
        {
          "internalType": "address",
          "name": "",
          "type": "address"
        }
      ],
      "name": "userScores",
      "outputs": [
        {
          "internalType": "uint256",
          "name": "score",
          "type": "uint256"
        },
        {
          "internalType": "uint256",
          "name": "probability",
          "type": "uint256"
        },
        {
          "internalType": "uint256",
          "name": "maxLoan",
          "type": "uint256"
        }
      ],
      "stateMutability": "view",
      "type": "function"
    },
    {
      "inputs": [],
      "name": "verifier",
      "outputs": [
        {
          "internalType": "contract IVerifier",
          "name": "",
          "type": "address"
        }
      ],
      "stateMutability": "view",
      "type": "function"
    }
  ],
  "transactionHash": "0xf164f20b792a44e6fafd2ccfc017d8e9b98a086b91906952eba01c3417a436a6",
  "args": [
    "0x6EDCE65403992e310A62460808c4b910D972f10f",
    "0xFbC66bD8466f7B7628fD32F8a8C07f3976c73979",
    "0x967e74ef3572ea6f8ae0bc3309227945613ad239"
  ],
  "numDeployments": 8,
  "solcInputHash": "193aafbfac586020bf64571643f1cb9d",
  "bytecode": "0x60a06040523480156200001157600080fd5b5060405162001bee38038062001bee83398101604081905262000034916200019e565b82828181806001600160a01b0381166200006857604051631e4fbdf760e01b81526000600482015260240160405180910390fd5b620000738162000131565b506001600160a01b038083166080528116620000a257604051632d618d8160e21b815260040160405180910390fd5b60805160405163ca5eb5e160e01b81526001600160a01b0383811660048301529091169063ca5eb5e190602401600060405180830381600087803b158015620000ea57600080fd5b505af1158015620000ff573d6000803e3d6000fd5b5050600380546001600160a01b0319166001600160a01b03989098169790971790965550620001e89650505050505050565b600080546001600160a01b038381166001600160a01b0319831681178455604051919092169283917f8be0079c531659141344cd1fd0a4f28419497f9722a3daafe3b4186f6b6457e09190a35050565b80516001600160a01b03811681146200019957600080fd5b919050565b600080600060608486031215620001b457600080fd5b620001bf8462000181565b9250620001cf6020850162000181565b9150620001df6040850162000181565b90509250925092565b6080516119c762000227600039600081816102430152818161048a0152818161098e01528181610c0101528181610e430152610efa01526119c76000f3fe6080604052600436106101145760003560e01c806382413eac116100a0578063bb0b6a5311610064578063bb0b6a53146103cd578063bc70b35414610408578063ca5eb5e114610428578063f2fde38b14610448578063ff7bd03d1461046857600080fd5b806382413eac146102b5578063851adf68146102e55780638da5cb5b1461033057806394fe89561461034e578063b98bd070146103ad57600080fd5b80633400288b116100e75780633400288b146101e45780635535d461146102045780635e280f1114610231578063715018a6146102655780637d25a05e1461027a57600080fd5b806313137d65146101195780631413d4c01461012e57806317442b701461018a5780632b7ac3f3146101ac575b600080fd5b61012c6101273660046110a4565b610488565b005b34801561013a57600080fd5b5061016a610149366004611143565b60046020526000908152604090208054600182015460029092015490919083565b604080519384526020840192909252908201526060015b60405180910390f35b34801561019657600080fd5b5060408051600181526002602082015201610181565b3480156101b857600080fd5b506003546101cc906001600160a01b031681565b6040516001600160a01b039091168152602001610181565b3480156101f057600080fd5b5061012c6101ff366004611180565b610548565b34801561021057600080fd5b5061022461021f3660046111bc565b61055e565b604051610181919061123f565b34801561023d57600080fd5b506101cc7f000000000000000000000000000000000000000000000000000000000000000081565b34801561027157600080fd5b5061012c610603565b34801561028657600080fd5b5061029d610295366004611180565b600092915050565b6040516001600160401b039091168152602001610181565b3480156102c157600080fd5b506102d56102d0366004611252565b610617565b6040519015158152602001610181565b6102f86102f33660046112b8565b61062c565b60408051825181526020808401516001600160401b031681830152928201518051928201929092529101516060820152608001610181565b34801561033c57600080fd5b506000546001600160a01b03166101cc565b34801561035a57600080fd5b5061016a610369366004611143565b6001600160a01b0316600090815260046020908152604091829020825160608101845281548082526001830154938201849052600290920154930183905292909190565b3480156103b957600080fd5b5061012c6103c8366004611369565b6107a5565b3480156103d957600080fd5b506103fa6103e83660046113dd565b60016020526000908152604090205481565b604051908152602001610181565b34801561041457600080fd5b506102246104233660046113f8565b6107bf565b34801561043457600080fd5b5061012c610443366004611143565b610967565b34801561045457600080fd5b5061012c610463366004611143565b6109ed565b34801561047457600080fd5b506102d5610483366004611458565b610a2b565b7f00000000000000000000000000000000000000000000000000000000000000006001600160a01b031633146104d8576040516391ac5e4f60e01b81523360048201526024015b60405180910390fd5b602087018035906104f2906104ed908a6113dd565b610a61565b146105305761050460208801886113dd565b60405163309afaf360e21b815263ffffffff9091166004820152602088013560248201526044016104cf565b61053f87878787878787610aa3565b50505050505050565b610550610afc565b61055a8282610b29565b5050565b60026020908152600092835260408084209091529082529020805461058290611474565b80601f01602080910402602001604051908101604052809291908181526020018280546105ae90611474565b80156105fb5780601f106105d0576101008083540402835291602001916105fb565b820191906000526020600020905b8154815290600101906020018083116105de57829003601f168201915b505050505081565b61060b610afc565b6106156000610b7e565b565b6001600160a01b03811630145b949350505050565b610634610fe8565b60408051606080820183528c825260208083018d81528385018d81526001600160a01b038c1660008181526004855287902095518655915160018601555160029094019390935583518e81529081018d90529283018b905290917fc3d569bab9b8a4ed0f3f5808a8a5f9b046ac3e6b9b15607815ef8b40642a13d9910160405180910390a2604080516001600160a01b038816602082015290810189905260009060600160408051601f198184030181526020601f8701819004810284018101909252858352925061073c918791849190889088908190840183828082843760009201829052506040805180820190915234815260208101919091529250339150610bce9050565b604080518d8152602081018d90529081018b905263ffffffff871660608201529092506001600160a01b038816907fe736c7db66392b1548d33321f78423722b6e67fc27a46c0aebd53ef8c55d0cff9060800160405180910390a2509998505050505050505050565b6107ad610afc565b61055a6107ba8284611516565b610cd9565b63ffffffff8416600090815260026020908152604080832061ffff871684529091528120805460609291906107f390611474565b80601f016020809104026020016040519081016040528092919081815260200182805461081f90611474565b801561086c5780601f106108415761010080835404028352916020019161086c565b820191906000526020600020905b81548152906001019060200180831161084f57829003601f168201915b5050505050905080516000036108bc5783838080601f0160208091040260200160405190810160405280939291908181526020018383808284376000920191909152509294506106249350505050565b60008390036108cc579050610624565b6002831061094a5761091384848080601f016020809104026020016040519081016040528093929190818152602001838380828437600092019190915250610deb92505050565b80610921846002818861163b565b60405160200161093393929190611665565b604051602081830303815290604052915050610624565b8383604051639a6d49cd60e01b81526004016104cf92919061168d565b61096f610afc565b60405163ca5eb5e160e01b81526001600160a01b0382811660048301527f0000000000000000000000000000000000000000000000000000000000000000169063ca5eb5e190602401600060405180830381600087803b1580156109d257600080fd5b505af11580156109e6573d6000803e3d6000fd5b5050505050565b6109f5610afc565b6001600160a01b038116610a1f57604051631e4fbdf760e01b8152600060048201526024016104cf565b610a2881610b7e565b50565b6000602082018035906001908390610a4390866113dd565b63ffffffff1681526020810191909152604001600020541492915050565b63ffffffff811660009081526001602052604081205480610a9d5760405163f6ff4fb760e01b815263ffffffff841660048201526024016104cf565b92915050565b60405162461bcd60e51b815260206004820152602860248201527f5a6b53636f726553656e64657220646f6573206e6f7420737570706f727420726044820152676563656976696e6760c01b60648201526084016104cf565b6000546001600160a01b031633146106155760405163118cdaa760e01b81523360048201526024016104cf565b63ffffffff8216600081815260016020908152604091829020849055815192835282018390527f238399d427b947898edb290f5ff0f9109849b1c3ba196a42e35f00c50a54b98b910160405180910390a15050565b600080546001600160a01b038381166001600160a01b0319831681178455604051919092169283917f8be0079c531659141344cd1fd0a4f28419497f9722a3daafe3b4186f6b6457e09190a35050565b610bd6610fe8565b6000610be58460000151610e17565b602085015190915015610bff57610bff8460200151610e3f565b7f00000000000000000000000000000000000000000000000000000000000000006001600160a01b0316632637a450826040518060a001604052808b63ffffffff168152602001610c4f8c610a61565b81526020018a815260200189815260200160008960200151111515815250866040518463ffffffff1660e01b8152600401610c8b9291906116bc565b60806040518083038185885af1158015610ca9573d6000803e3d6000fd5b50505050506040513d601f19601f82011682018060405250810190610cce9190611735565b979650505050505050565b60005b8151811015610db057610d0b828281518110610cfa57610cfa6117c3565b602002602001015160400151610deb565b818181518110610d1d57610d1d6117c3565b60200260200101516040015160026000848481518110610d3f57610d3f6117c3565b60200260200101516000015163ffffffff1663ffffffff1681526020019081526020016000206000848481518110610d7957610d796117c3565b60200260200101516020015161ffff1661ffff1681526020019081526020016000209081610da7919061182a565b50600101610cdc565b507fbe4864a8e820971c0247f5992e2da559595f7bf076a21cb5928d443d2a13b67481604051610de091906118e9565b60405180910390a150565b600281015161ffff811660031461055a5781604051639a6d49cd60e01b81526004016104cf919061123f565b6000813414610e3b576040516304fb820960e51b81523460048201526024016104cf565b5090565b60007f00000000000000000000000000000000000000000000000000000000000000006001600160a01b031663e4fe1d946040518163ffffffff1660e01b8152600401602060405180830381865afa158015610e9f573d6000803e3d6000fd5b505050506040513d601f19601f82011682018060405250810190610ec39190611974565b90506001600160a01b038116610eec576040516329b99a9560e11b815260040160405180910390fd5b6040805133602482018190527f00000000000000000000000000000000000000000000000000000000000000006001600160a01b03818116604485015260648085018890528551808603909101815260849094019094526020830180516001600160e01b03166323b872dd60e01b17905261055a938516928690610f71908590610f77565b50505050565b600080602060008451602086016000885af180610f9a576040513d6000823e3d81fd5b50506000513d91508115610fb2578060011415610fbf565b6001600160a01b0384163b155b15610f7157604051635274afe760e01b81526001600160a01b03851660048201526024016104cf565b60405180606001604052806000801916815260200160006001600160401b0316815260200161102a604051806040016040528060008152602001600081525090565b905290565b60006060828403121561104157600080fd5b50919050565b60008083601f84011261105957600080fd5b5081356001600160401b0381111561107057600080fd5b60208301915083602082850101111561108857600080fd5b9250929050565b6001600160a01b0381168114610a2857600080fd5b600080600080600080600060e0888a0312156110bf57600080fd5b6110c9898961102f565b96506060880135955060808801356001600160401b03808211156110ec57600080fd5b6110f88b838c01611047565b909750955060a08a0135915061110d8261108f565b90935060c0890135908082111561112357600080fd5b506111308a828b01611047565b989b979a50959850939692959293505050565b60006020828403121561115557600080fd5b81356111608161108f565b9392505050565b803563ffffffff8116811461117b57600080fd5b919050565b6000806040838503121561119357600080fd5b61119c83611167565b946020939093013593505050565b803561ffff8116811461117b57600080fd5b600080604083850312156111cf57600080fd5b6111d883611167565b91506111e6602084016111aa565b90509250929050565b60005b8381101561120a5781810151838201526020016111f2565b50506000910152565b6000815180845261122b8160208601602086016111ef565b601f01601f19169290920160200192915050565b6020815260006111606020830184611213565b60008060008060a0858703121561126857600080fd5b611272868661102f565b935060608501356001600160401b0381111561128d57600080fd5b61129987828801611047565b90945092505060808501356112ad8161108f565b939692955090935050565b6000806000806000806000806000898b036103008112156112d857600080fd5b8a35995060208b0135985060408b01359750610220605f19820112156112fd57600080fd5b5060608a0195506102808a01356113138161108f565b94506102a08a0135935061132a6102c08b01611167565b92506102e08a01356001600160401b0381111561134657600080fd5b6113528c828d01611047565b915080935050809150509295985092959850929598565b6000806020838503121561137c57600080fd5b82356001600160401b038082111561139357600080fd5b818501915085601f8301126113a757600080fd5b8135818111156113b657600080fd5b8660208260051b85010111156113cb57600080fd5b60209290920196919550909350505050565b6000602082840312156113ef57600080fd5b61116082611167565b6000806000806060858703121561140e57600080fd5b61141785611167565b9350611425602086016111aa565b925060408501356001600160401b0381111561144057600080fd5b61144c87828801611047565b95989497509550505050565b60006060828403121561146a57600080fd5b611160838361102f565b600181811c9082168061148857607f821691505b60208210810361104157634e487b7160e01b600052602260045260246000fd5b634e487b7160e01b600052604160045260246000fd5b604051606081016001600160401b03811182821017156114e0576114e06114a8565b60405290565b604051601f8201601f191681016001600160401b038111828210171561150e5761150e6114a8565b604052919050565b60006001600160401b0380841115611530576115306114a8565b8360051b60206115418183016114e6565b86815291850191818101903684111561155957600080fd5b865b8481101561162f578035868111156115735760008081fd5b880160603682900312156115875760008081fd5b61158f6114be565b61159882611167565b81526115a58683016111aa565b86820152604080830135898111156115bd5760008081fd5b9290920191601f36818501126115d35760008081fd5b83358a8111156115e5576115e56114a8565b6115f6818301601f19168a016114e6565b9150808252368982870101111561160d5760008081fd5b808986018a84013760009082018901529082015284525091830191830161155b565b50979650505050505050565b6000808585111561164b57600080fd5b8386111561165857600080fd5b5050820193919092039150565b600084516116778184602089016111ef565b8201838582376000930192835250909392505050565b60208152816020820152818360408301376000818301604090810191909152601f909201601f19160101919050565b6040815263ffffffff8351166040820152602083015160608201526000604084015160a060808401526116f260e0840182611213565b90506060850151603f198483030160a085015261170f8282611213565b60809690960151151560c08501525050506001600160a01b039190911660209091015290565b6000818303608081121561174857600080fd5b6117506114be565b8351815260208401516001600160401b03808216821461176f57600080fd5b8160208401526040915081603f198501121561178a57600080fd5b8151935081840184811082821117156117a5576117a56114a8565b82525084810151835260609094015160208301529283015250919050565b634e487b7160e01b600052603260045260246000fd5b601f821115611825576000816000526020600020601f850160051c810160208610156118025750805b601f850160051c820191505b818110156118215782815560010161180e565b5050505b505050565b81516001600160401b03811115611843576118436114a8565b611857816118518454611474565b846117d9565b602080601f83116001811461188c57600084156118745750858301515b600019600386901b1c1916600185901b178555611821565b600085815260208120601f198616915b828110156118bb5788860151825594840194600190910190840161189c565b50858210156118d95787850151600019600388901b60f8161c191681555b5050505050600190811b01905550565b600060208083018184528085518083526040925060408601915060408160051b87010184880160005b8381101561196657888303603f190185528151805163ffffffff1684528781015161ffff1688850152860151606087850181905261195281860183611213565b968901969450505090860190600101611912565b509098975050505050505050565b60006020828403121561198657600080fd5b81516111608161108f56fea2646970667358221220e9a9287e2b666a55641df2499b2ef0db8e23864466434c6ac98df0b60229a92164736f6c63430008160033",
  "devdoc": {
    "errors": {
      "OwnableInvalidOwner(address)": [
        {
          "details": "The owner is not a valid owner account. (eg. `address(0)`)"
        }
      ],
      "OwnableUnauthorizedAccount(address)": [
        {
          "details": "The caller account is not authorized to perform an operation."
        }
      ],
      "SafeERC20FailedOperation(address)": [
        {
          "details": "An operation with an ERC-20 token failed."
        }
      ]
    },
    "kind": "dev",
    "methods": {
      "allowInitializePath((uint32,bytes32,uint64))": {
        "details": "This indicates to the endpoint that the OApp has enabled msgs for this particular path to be received.This defaults to assuming if a peer has been set, its initialized. Can be overridden by the OApp if there is other logic to determine this.",
        "params": {
          "origin": "The origin information containing the source endpoint and sender address."
        },
        "returns": {
          "_0": "Whether the path has been initialized."
        }
      },
      "combineOptions(uint32,uint16,bytes)": {
        "details": "If there is an enforced lzReceive option: - {gasLimit: 200k, msg.value: 1 ether} AND a caller supplies a lzReceive option: {gasLimit: 100k, msg.value: 0.5 ether} - The resulting options will be {gasLimit: 300k, msg.value: 1.5 ether} when the message is executed on the remote lzReceive() function.This presence of duplicated options is handled off-chain in the verifier/executor.",
        "params": {
          "_eid": "The endpoint ID.",
          "_extraOptions": "Additional options passed by the caller.",
          "_msgType": "The OAPP message type."
        },
        "returns": {
          "_0": "options The combination of caller specified options AND enforced options."
        }
      },
      "isComposeMsgSender((uint32,bytes32,uint64),bytes,address)": {
        "details": "_origin The origin information containing the source endpoint and sender address.  - srcEid: The source chain endpoint ID.  - sender: The sender address on the src chain.  - nonce: The nonce of the message._message The lzReceive payload.Applications can optionally choose to implement separate composeMsg senders that are NOT the bridging layer.The default sender IS the OAppReceiver implementer.",
        "params": {
          "_sender": "The sender address."
        },
        "returns": {
          "_0": "isSender Is a valid sender."
        }
      },
      "lzReceive((uint32,bytes32,uint64),bytes32,bytes,address,bytes)": {
        "details": "Entry point for receiving messages or packets from the endpoint.Entry point for receiving msg/packet from the LayerZero endpoint.",
        "params": {
          "_executor": "The address of the executor for the received message.",
          "_extraData": "Additional arbitrary data provided by the corresponding executor.",
          "_guid": "The unique identifier for the received LayerZero message.",
          "_message": "The payload of the received message.",
          "_origin": "The origin information containing the source endpoint and sender address.  - srcEid: The source chain endpoint ID.  - sender: The sender address on the src chain.  - nonce: The nonce of the message."
        }
      },
      "nextNonce(uint32,bytes32)": {
        "details": "_srcEid The source endpoint ID._sender The sender address.The path nonce starts from 1. If 0 is returned it means that there is NO nonce ordered enforcement.Is required by the off-chain executor to determine the OApp expects msg execution is ordered.This is also enforced by the OApp.By default this is NOT enabled. ie. nextNonce is hardcoded to return 0.",
        "returns": {
          "nonce": "The next nonce."
        }
      },
      "oAppVersion()": {
        "returns": {
          "receiverVersion": "The version of the OAppReceiver.sol implementation.",
          "senderVersion": "The version of the OAppSender.sol implementation."
        }
      },
      "owner()": {
        "details": "Returns the address of the current owner."
      },
      "renounceOwnership()": {
        "details": "Leaves the contract without owner. It will not be possible to call `onlyOwner` functions. Can only be called by the current owner. NOTE: Renouncing ownership will leave the contract without an owner, thereby disabling any functionality that is only available to the owner."
      },
      "setDelegate(address)": {
        "details": "Only the owner/admin of the OApp can call this function.Provides the ability for a delegate to set configs, on behalf of the OApp, directly on the Endpoint contract.",
        "params": {
          "_delegate": "The address of the delegate to be set."
        }
      },
      "setEnforcedOptions((uint32,uint16,bytes)[])": {
        "details": "Sets the enforced options for specific endpoint and message type combinations.Only the owner/admin of the OApp can call this function.Provides a way for the OApp to enforce things like paying for PreCrime, AND/OR minimum dst lzReceive gas amounts etc.These enforced options can vary as the potential options/execution on the remote may differ as per the msgType. eg. Amount of lzReceive() gas necessary to deliver a lzCompose() message adds overhead you dont want to pay if you are only making a standard LayerZero message ie. lzReceive() WITHOUT sendCompose().",
        "params": {
          "_enforcedOptions": "An array of EnforcedOptionParam structures specifying enforced options."
        }
      },
      "setPeer(uint32,bytes32)": {
        "details": "Only the owner/admin of the OApp can call this function.Indicates that the peer is trusted to send LayerZero messages to this OApp.Set this to bytes32(0) to remove the peer address.Peer is a bytes32 to accommodate non-evm chains.",
        "params": {
          "_eid": "The endpoint ID.",
          "_peer": "The address of the peer to be associated with the corresponding endpoint."
        }
      },
      "transferOwnership(address)": {
        "details": "Transfers ownership of the contract to a new account (`newOwner`). Can only be called by the current owner."
      }
    },
    "version": 1
  },
  "userdoc": {
    "kind": "user",
    "methods": {
      "allowInitializePath((uint32,bytes32,uint64))": {
        "notice": "Checks if the path initialization is allowed based on the provided origin."
      },
      "combineOptions(uint32,uint16,bytes)": {
        "notice": "Combines options for a given endpoint and message type."
      },
      "endpoint()": {
        "notice": "Retrieves the LayerZero endpoint associated with the OApp."
      },
      "isComposeMsgSender((uint32,bytes32,uint64),bytes,address)": {
        "notice": "Indicates whether an address is an approved composeMsg sender to the Endpoint."
      },
      "nextNonce(uint32,bytes32)": {
        "notice": "Retrieves the next nonce for a given source endpoint and sender address."
      },
      "oAppVersion()": {
        "notice": "Retrieves the OApp version information."
      },
      "peers(uint32)": {
        "notice": "Retrieves the peer (OApp) associated with a corresponding endpoint."
      },
      "setDelegate(address)": {
        "notice": "Sets the delegate address for the OApp."
      },
      "setPeer(uint32,bytes32)": {
        "notice": "Sets the peer address (OApp instance) for a corresponding endpoint."
      }
    },
    "version": 1
  },
  "storageLayout": {
    "storage": [
      {
        "astId": 1533,
        "contract": "contracts/ZkScoreSender.sol:ZkScoreSender",
        "label": "_owner",
        "offset": 0,
        "slot": "0",
        "type": "t_address"
      },
      {
        "astId": 785,
        "contract": "contracts/ZkScoreSender.sol:ZkScoreSender",
        "label": "peers",
        "offset": 0,
        "slot": "1",
        "type": "t_mapping(t_uint32,t_bytes32)"
      },
      {
        "astId": 1381,
        "contract": "contracts/ZkScoreSender.sol:ZkScoreSender",
        "label": "enforcedOptions",
        "offset": 0,
        "slot": "2",
        "type": "t_mapping(t_uint32,t_mapping(t_uint16,t_bytes_storage))"
      },
      {
        "astId": 2589,
        "contract": "contracts/ZkScoreSender.sol:ZkScoreSender",
        "label": "verifier",
        "offset": 0,
        "slot": "3",
        "type": "t_contract(IVerifier)2545"
      },
      {
        "astId": 2601,
        "contract": "contracts/ZkScoreSender.sol:ZkScoreSender",
        "label": "userScores",
        "offset": 0,
        "slot": "4",
        "type": "t_mapping(t_address,t_struct(ScoreData)2596_storage)"
      }
    ],
    "types": {
      "t_address": {
        "encoding": "inplace",
        "label": "address",
        "numberOfBytes": "20"
      },
      "t_bytes32": {
        "encoding": "inplace",
        "label": "bytes32",
        "numberOfBytes": "32"
      },
      "t_bytes_storage": {
        "encoding": "bytes",
        "label": "bytes",
        "numberOfBytes": "32"
      },
      "t_contract(IVerifier)2545": {
        "encoding": "inplace",
        "label": "contract IVerifier",
        "numberOfBytes": "20"
      },
      "t_mapping(t_address,t_struct(ScoreData)2596_storage)": {
        "encoding": "mapping",
        "key": "t_address",
        "label": "mapping(address => struct ZkScoreSender.ScoreData)",
        "numberOfBytes": "32",
        "value": "t_struct(ScoreData)2596_storage"
      },
      "t_mapping(t_uint16,t_bytes_storage)": {
        "encoding": "mapping",
        "key": "t_uint16",
        "label": "mapping(uint16 => bytes)",
        "numberOfBytes": "32",
        "value": "t_bytes_storage"
      },
      "t_mapping(t_uint32,t_bytes32)": {
        "encoding": "mapping",
        "key": "t_uint32",
        "label": "mapping(uint32 => bytes32)",
        "numberOfBytes": "32",
        "value": "t_bytes32"
      },
      "t_mapping(t_uint32,t_mapping(t_uint16,t_bytes_storage))": {
        "encoding": "mapping",
        "key": "t_uint32",
        "label": "mapping(uint32 => mapping(uint16 => bytes))",
        "numberOfBytes": "32",
        "value": "t_mapping(t_uint16,t_bytes_storage)"
      },
      "t_struct(ScoreData)2596_storage": {
        "encoding": "inplace",
        "label": "struct ZkScoreSender.ScoreData",
        "members": [
          {
            "astId": 2591,
            "contract": "contracts/ZkScoreSender.sol:ZkScoreSender",
            "label": "score",
            "offset": 0,
            "slot": "0",
            "type": "t_uint256"
          },
          {
            "astId": 2593,
            "contract": "contracts/ZkScoreSender.sol:ZkScoreSender",
            "label": "probability",
            "offset": 0,
            "slot": "1",
            "type": "t_uint256"
          },
          {
            "astId": 2595,
            "contract": "contracts/ZkScoreSender.sol:ZkScoreSender",
            "label": "maxLoan",
            "offset": 0,
            "slot": "2",
            "type": "t_uint256"
          }
        ],
        "numberOfBytes": "96"
      },
      "t_uint16": {
        "encoding": "inplace",
        "label": "uint16",
        "numberOfBytes": "2"
      },
      "t_uint256": {
        "encoding": "inplace",
        "label": "uint256",
        "numberOfBytes": "32"
      },
      "t_uint32": {
        "encoding": "inplace",
        "label": "uint32",
        "numberOfBytes": "4"
      }
    }
  }
}